S0170000736E6D705F7477726B36306E3531322E73726563BC
S1130000F0FE002021040000A7180200A718020037
S1130010A7180200A7180200A71802000000000099
S1130020000000000000000000000000CF170200E4
S1130030A71802000000000045180200A7180200DB
S1130040A7180200A7180200A7180200A7180200A8
S1130050A7180200A7180200A7180200A718020098
S1130060A7180200A7180200A7180200A718020088
S1130070A7180200A7180200A7180200A718020078
S1130400FFFFFFFFFFFFFFFFFFFFFFFFFEFFFFFFF9
S107041000000000E4
S11304200E480F490F4A4FF0080333B140F8042B2C
S113043041F8042BA3F10103F7E7EFF3088080F3FD
S11304400988EFF3148040F0020080F31488BFF3AE
S11304506F8F00F009B880F30888704780E100E0EE
S113046080E200E0FFFFFFFFC046C046C046C04632
S113047000F000F800F009F8002801D000F00AF8B4
S1130480002000F01BF800F021F880B500F0B6F869
S1130490012002BD10B5074979441831064C7C444B
S11304A0163404E00A68081D511888470146A14221
S11304B0F8D110BD044F0200404F020080B502483D
S11304C000F0D0F8002002BD4000FF1F00F0FABA8F
S11304D059484CF22051C1814DF62811C18101883F
S11304E04FF6FE7211400180704710B45349544ACC
S11304F011F582531B6853F0010311F582542360F4
S113050041F204035B5853F4407341F20404635012
S11305104C4B18004FF4A06383624FF4A063C36292
S11305204FF4A06303644FF4A06343644FF4A063E7
S113053083644FF4A063C3644FF4A06303654FF472
S1130540A06343654FF4A06383654FF4A063C36560
S11305503D4B18004FF4A06303604FF4A063436065
S11305604FF4A06383604FF4A063C3604FF4A063AF
S113057003614FF4A06343614FF4A06383614FF4BC
S1130580A063C3614FF4A06303624FF4A0634362AA
S11305904FF4A06383624FF4A063C3624FF4A0637B
S11305A003634FF4A06343634FF4A06383634FF486
S11305B0A063C363254B18004FF4A06303604FF49A
S11305C0A06343604FF4A06383604FF4A063C360EF
S11305D04FF4A06303614FF4A06343614FF4A0633D
S11305E083615FF08053136610BC70471449086040
S11305F04FF416628A60164A4A60704780B51548FF
S11306000068C0F3033000280BD11348006830F0B1
S11306101900114908601148006830F019000F49A9
S1130620086000F0B5FE01F0E9F8FFF75EFF0C4842
S1130630FFF7DCFF01BD000000200540007004400E
S113064000C0004000A0044000B0044000C00440CA
S1130650010007002480044004F0014008F0014038
S1130660000000702DE9F04F83B08246DAF80400F0
S11306700F30000900010400DFF82C040460DFF8E7
S11306802C042060DFF8280420604FF4517200210C
S1130690200001F0E7F814F5D4705146302201F03F
S11306A013F9C4F8AC41D4F8B00100090001C4F84E
S11306B0B00100F087F901F0C3FB0700002F02D05E
S11306C0380000F0AFF8D4F8D001002806D0D4F8F0
S11306D0D0018046D4F8B401070018E0D4F8B4017E
S11306E0D82802D2D820C4F8B401D4F8B401103008
S11306F00700380001F094FB8046B8F1000F02D1E6
S1130700042000F08FF80221404601F0F5FB390087
S1130710404601F0D2FF17EB0800401E000900011B
S1130720E063D8200700380001F07AFB8146B9F174
S1130730000F02D1042000F075F80121484601F0B1
S1130740DBFB17EB0900401E00090001834614F18E
S113075050000600BBF164007061C6F810B019F1D6
S11307600F0000090001B0617069DFF848130860E8
S113077002F08EF80700002F02D0380000F052F883
S1130780012114F5EC7002F0F1F8012114F5A670C2
S113079002F0ECF802F024FA0700002F02D038002F
S11307A000F040F8D4E9BF010A3051F10001C4E976
S11307B0BF01002001900020009001230022E06985
S11307C0C16814F5367001F0A3FE0600002E02D1B4
S11307D0042000F027F8300001F079FFD4F8B801C4
S11307E005002868002818D0287DC00713D50020EC
S11307F00190002000900023AA69E069C1682800E4
S113080001F086FE0600002E02D1042000F00AF852
S1130810300001F05CFF2035E3E720F0C1FF002049
S1130820BDE8FE8F38B5040002F0C9FA9E4800689E
S11308300500FEE79C490968080070479A4A126857
S113084011000881704738B5040097480068050016
S1130850082C04D30C2001F0E5FD002003E015EB87
S11308608400D0F8A80232BDF8B504000D008E480B
S113087000680600082C04D30C2001F0D3FD0020EE
S113088016E002F09CFA16EB8400D0F8A8020700E8
S1130890002F04D116EB8400C0F8A85205E0002D07
S11308A003D116EB8400C0F8A85202F099FA38007C
S11308B0F2BD2DE9F84F04000D001600B6EB050B50
S11308C0794800688046082C03D2002D01D0002E00
S11308D004D10C2001F0A6FD0C202BE002F06FFAED
S11308E018EB8400D0F8A802A84203D102F078FAE9
S11308F019201FE018EB8400D0F8A8028146B9F152
S1130900000F0AD05BF809008246AA4503D102F021
S113091067FA19200EE0D146F1E718EB8400D0F80D
S1130920A802070018EB8400C0F8A852376002F050
S113093057FA0020BDE8F28F2DE9F84F04000D00AE
S11309401600771B5FF0190B574800688246082C85
S113095003D2002D01D0002E04D10C2001F062FD41
S11309600C202DE002F02BFA1AEB8400D0F8A80238
S1130970A84209D11AEB84007959C0F8A8120020C2
S113098078510020834618E01AEB8400D0F8A802BE
S11309908046B8F1000F10D057F808008146A945E9
S11309A009D157F8090047F80800002047F8090062
S11309B00020834601E0C846EBE702F011FA5846EE
S11309C0BDE8F28F2DE9F04137480068040043F692
S11309D0F83020824FF4D570608208202060012016
S11309E060600220E0810F2060810F20A081D4F894
S11309F0B801002802D10120FFF714FF0120C4F838
S1130A00F8020120C4F81C0101F012FF14F1500097
S1130A100600E661E08A6083E08AB084D4F8A80125
S1130A20000440F47F4050F0FF00F0600320B06009
S1130A30002114F5A07002F0EDFA002114F5C07045
S1130A4002F0E8FA00200700D4F8B80105000020FD
S1130A508046286800280CD04FF6FF70804508D2E5
S1130A60E868874201D2E868070018F101082035D8
S1130A70EFE7C4F8187114F5367005000E482860C5
S1130A80E020A8600D4828610D486860781CE86083
S1130A90002114F5907002F0BDFA0120C4F82C0175
S1130AA0BDE8F08100000000F803FF1FE44C0200E1
S1130AB0E84C0200E008FF1F03000080D44C020051
S1130AC081BC01000746384602F006FBFBE750F8FC
S1130AD0041B61B150F8042BD30744BFA9F10103EF
S1130AE09A18002342F8043B091FFAD1EFE7704734
S1130AF070470100DFF8D0070078012817D1C9B288
S1130B00002908D1DFF8C4071E220270DFF8C007ED
S1130B100A22027007E0DFF8B4071F220270DFF830
S1130B20B00780220270C9B2002907D101E0012078
S1130B3015E0DFF8A0078022027003E0DFF89407D5
S1130B40C0220270DFF88C0700780006FAD4DFF8C0
S1130B5084070078800601D4002000E01B20704741
S1130B60C0B2002824D1DFF8701700220A70DFF821
S1130B706C17096849084900DFF860271160DFF83D
S1130B80601728220A70DFF85C1721220A70DFF848
S1130B90581738220A70DFF8541758220A70DFF801
S1130BA050170978C9B211F00C010C29F7D1FFE7ED
S1130BB07047C0B2002802D001282AD053E0DFF8E1
S1130BC0181700220A70DFF8141709684908490049
S1130BD0DFF808271160DFF80817A8220A70DFF889
S1130BE0041721220A70DFF8001738220A70DFF890
S1130BF0FC1658220A70DFF8F8160978C9B211F009
S1130C000C010829F7D1DFF8E81609784906FAD566
S1130C1029E0DFF8C41600220A70DFF8C01609685C
S1130C2049084900DFF8B4261160DFF8B416AB2296
S1130C300A70DFF8B01621220A70DFF8AC160D2214
S1130C400A70DFF8A81640220A70DFF8A4160978A3
S1130C50C9B211F00C010829F7D1DFF8941609780C
S1130C604906FAD5FFE77047C0B2002802D0012830
S1130C7032D063E0DFF8601600220A70DFF85C16F9
S1130C80096849084900DFF854261160DFF8541652
S1130C9021220A70DFF84816A8220A70DFF85416D9
S1130CA0097811F01F01DFF84C261170DFF83816AF
S1130CB038220A70DFF8341618220A70DFF830166A
S1130CC00978C906FAD4DFF828160978C9B211F0F0
S1130CD00C010829F7D131E0DFF8FC1500220A7075
S1130CE0DFF8F815096849084900DFF8F0251160B4
S1130CF0DFF8F01521220A70DFF8E415AB220A7040
S1130D00DFF8F015097811F01F01DFF8E8251170FC
S1130D10DFF8D41500220A70DFF8D01500220A701B
S1130D20DFF8CC150978C906FAD4DFF8C4150978B8
S1130D30C9B211F00C010829F7D1FFE77047C0B21E
S1130D40012816D1DFF8981547220A70DFF89415A8
S1130D5023220A70DFF8801500220A70DFF890154C
S1130D600978C906FAD5DFF888150978C907FAD5CC
S1130D70FFE77047C0B2002802D0012832D063E0F8
S1130D80DFF85C1544220A70DFF8581521220A7036
S1130D90DFF86015097811F01F01DFF8582511708C
S1130DA0DFF8341500220A70DFF8301509684908A5
S1130DB04900DFF828251160DFF82C1538220A7065
S1130DC0DFF8281518220A70DFF824150978C906F7
S1130DD0FAD5DFF81C150978C9B211F00C01042901
S1130DE0F7D131E0DFF8F81447220A70DFF8F41481
S1130DF021220A70DFF8FC14097811F01F01DFF8D2
S1130E00F4241170DFF8D01400220A70DFF8CC1437
S1130E10096849084900DFF8C4241160DFF8C814E0
S1130E2000220A70DFF8C41400220A70DFF8C0142C
S1130E300978C906FAD5DFF8B8140978C9B211F0EF
S1130E400C010429F7D1FFE7704770B504000025B1
S1130E50E4B2002C02D0012C03D005E004200500EC
S1130E6002E001200500FFE700F031F80600EDB2D2
S1130E70F6B20520DFF8801400FB06102E5CF6B2F3
S1130E80002E06D0022E0ED008D3042E15D00FD378
S1130E9018E02000C0B2FFF76DFF13E02000C0B2DD
S1130EA0FFF74DFF0EE02000C0B2FFF7DDFE09E0C2
S1130EB02000C0B2FFF77DFE04E02000C0B2FFF7BF
S1130EC04FFEFFE7EDB2F6B2B542D0D170BDDFF808
S1130ED010040078C0B210F0C000002804D04028EC
S1130EE004D080280BD013E0042012E0DFF8F403D0
S1130EF00078800701D400200BE0012009E0DFF82E
S1130F00EC030078400601D4022002E0032000E054
S1130F100020704710B50400E4B2032C01D3022072
S1130F20B6E0E4B2002C03D0022C7BD03DD3A7E082
S1130F30DFF894030078022817D1DFF8B0030078B3
S1130F4010F0DF00DFF8A4130870DFF8B003DFF857
S1130F50B01301600020FFF778FFDFF890030078FA
S1130F6050F02000DFF884130870DFF89003DFF8F6
S1130F7094130160DFF89003006830F00D0050F026
S1130F800200DFF884130860DFF85003006850F4AF
S1130F908030DFF848130860DFF87003006850F40D
S1130FA00020DFF8681308606AE0DFF81C030078AB
S1130FB0022817D1DFF83403007810F0DF00DFF8DF
S1130FC02C130870DFF83403DFF8341301600020B9
S1130FD0FFF73BFFDFF81403007850F02000DFF840
S1130FE00C130870DFF81403DFF824130160DFF832
S1130FF01803006830F00D0050F00200DFF8081309
S11310000860DFF8D802006850F48030DFF8CC12B2
S11310100860DFF8F802006850F40020DFF8EC12F2
S113102008602DE0DFF8C402007810F0DF00DFF87C
S1131030BC120870DFF8C402DFF8C412016001209A
S1131040FFF703FFDFF8B4025FF440310160DFF81B
S1131050B802006800090001DFF8AC120860DFF88C
S11310607C02006850F48030DFF870120860DFF80A
S11310709C02006850F40020DFF890120860FFE73B
S11310802000C0B2FFF734FDDFF83C0204700020FA
S113109010BDDFF8340200787047000080B5FFF718
S11310A017FA9C48006850F400709A49086040F2AE
S11310B0FF300078C0B2FF2810D0974840F2FF31CB
S11310C0097801708B48007810F0E00040F2FE319E
S11310D0097811F01F010843864908708748894937
S11310E001608948006830F00D0050F00200864924
S11310F008607A48006850F4803078490860834872
S1131100006850F4002081490860844800688449DC
S11311100840824908607048002101706F480068E7
S1131120400840006D4908606E48212101706C48F8
S1131130A82101706F48007810F01F006D490870F5
S1131140694838210170694818210170684800789D
S1131150C006FBD466480078C0B210F00C00082822
S1131160F8D15D48002101705C48006840084000E7
S11311705A4908605A48A82101705A48212101702F
S1131180594838210170594858210170584800784D
S1131190C0B210F00C000828F8D155480078400679
S11311A0FBD54D48002101704C48006840084000C0
S11311B04A4908604A48282101704A48212101709F
S11311C0494838210170494858210170484800783D
S11311D0C0B210F00C000C28F8D14448007850F04C
S11311E020004249087001BD4E48002101604E486C
S11311F0007810F0DC0050F050004B4908704B4868
S1131200007810F0DC0050F040004849087048486D
S1131210007810F0EC00464908704648006850F029
S1131220805044490860444800210170434800212B
S11312300170434800210170424800210170424876
S1131240007810F0600050F020003F4908703F48DB
S1131250007810F0FC0050F084003C4908703C48D1
S113126030210170704770B5040000262000C0B220
S1131270FFF750FE0600B6B2002E02D0300080B256
S11312800AE000212000C0B201F034FF0500C821AB
S1131290280001F083FC002070BD80B5FFF7F9FE43
S11312A002BD0200D2B2032A0BD2C9B21E2908D24F
S11312B0C9B2D2B22820274B00FB023050F82100DB
S11312C000E00020704700006409FF1F0A40064048
S11312D00B4006400840064000500640048004408D
S11312E000400640014006400440064005400640D8
S11312F00640064003400640185102004480044062
S113130000003301000013014880044000700440D1
S1131310000077773880044002400640489004403B
S1131320FFF8FFFE1480044000D0074001D00740BE
S113133002D007403480044000C0074001C0074089
S113134002C0074003C0074004C0074008C007406C
S113135002E007403451020010B500240020FFF7DA
S1131360C8FB0400A4B2002C02D0200080B20AE022
S11313700120FFF7BEFB0400A4B2002C02D0200021
S113138080B200E0002010BD80B5FFF72DFF01BD45
S113139080B5FFF783FE01BD30B40200DFF8983456
S11313A0D2B2002A0AD0022A54D02DD3042A00F043
S11313B09D8075D3052A00F0BF80E3E0DFF87C044C
S11313C00400C80705D54FF45070A0614FF4507065
S11313D0E061880703D50020A0610020E061480790
S11313E007D541F23400C05850F4806041F234050E
S11313F0E850080707D541F23400C05830F4806043
S113140041F23405E850C0E0DFF834040400C807B2
S113141005D54FF45070E0604FF450702061880798
S113142003D50020E06000202061480707D541F281
S11314303400C05850F4006041F23405E850080705
S113144007D541F23400C05830F4006041F234054D
S1131450E8509AE0DFF8E4030400C80705D54FF428
S11314605070A0604FF45070E060880703D50020EE
S1131470A0600020E060480707D541F23400C0585E
S113148050F4805041F23405E850080707D541F282
S11314903400C05830F4805041F23405E85074E010
S11314A0DFF89C030400C80705D54FF4507020648E
S11314B04FF450706064880703D500202064002036
S11314C06064480707D541F23400C05850F4005016
S11314D041F23405E850080707D541F23400C058FA
S11314E030F4005041F23405E8504EE0DFF8540384
S11314F00400C80705D54FF4507060664FF450706F
S11315002066880703D5002060660020206648070F
S113151007D541F22800C05850F4806041F22805F4
S1131520E850080707D541F22800C05830F480601D
S113153041F22805E85028E0DFF808030400C80752
S113154005D54FF4507020624FF4507060628807E4
S113155003D50020206200206062480707D541F2CD
S11315602800C05850F4006041F22805E8500807EC
S113157007D541F22800C05830F4006041F2280534
S1131580E85002E05FF0FF3000E0002030BC70471C
S11315900100DFF8A422002908D141F23C00805860
S11315A050F0006041F23C0398500DE0012908D14D
S11315B041F23000805850F0006041F230039850FE
S11315C002E05FF0FF3000E00020704770B40100DB
S11315D011F01F0200230025080505D5D2B2042A04
S11315E002DB5FF0FF3070E0080505D4D2B2022AB6
S11315F002D15FF0FF3068E0D2B21A2A2CDA89B245
S113160011F47040B0F5805F05D1D2B2DFF8380232
S1131610105C040022E089B211F4C060B0F5806F60
S113162003D04FF4C060014205D1D2B2DFF81C02EE
S1131630105C040012E0D2B2042A02DBD2B2082AFF
S113164002DB0020040009E0D2B2DFF80402101823
S113165010F8040C040001E001200400E4B2002CA2
S113166002D15FF0FF3030E0E4B2012C01D1002060
S11316702BE0E4B26009012807D019D303280CD069
S113168007D3052811D00CD312E0DFF8C8010500F8
S11316900EE0DFF8C40105000AE0DFF8A40105004C
S11316A006E0DFF89801050002E0DFF89801050084
S11316B0E4B214F01F0055F8200030F4E060E4B206
S11316C014F01F0645F82600002070BC7047DFF8B0
S11316D08C01006850F00050DFF880110860002091
S11316E0704730B40200544BD2B2002A28D1554876
S11316F0040089B240F243400840206089B240F2BD
S113170043400840606089B211F48860A06089B2E7
S113171040F243400840E06089B240F24340084050
S1131720206189B240F243400840606141F23000D8
S1131730C05850F4003041F23005E850002001E078
S11317405FF0FF3030BC704710B401003A4B002901
S113175002D0012911D021E0384802004FF408706A
S113176010624FF40870506241F23400C05850F0D7
S1131770400041F23404E05013E0314802004FF4D9
S1131780087090624FF40870D06241F23400C0587F
S113179050F0800041F23404E05002E05FF0FF308A
S11317A000E0002010BC704710B40100224B29480F
S11317B002004FF4806010634FF4806050634FF474
S11317C0806090634FF48060D0634FF48060106455
S11317D04FF480605064204802004FF4846010602D
S11317E04FF48060506041F22C00C05850F001006A
S11317F041F22C04E050002010BC704718480068E7
S113180050F4785016490860002070470100080021
S1131810032802D0042806D00BE0094802004FF444
S11318204070906405E0074802004FF44070D066B1
S1131830FFE70020704700000070044000C004402F
S113184000B0044000D00440AC510200C851020072
S1131850E45102000090044000A004403C80044095
S11318603880044070B504000D0016002A003100D1
S1131870200001F049FC200070BD10B450F8041B96
S113188081B102681218001D50F8043BDC0744BF04
S1131890A9F10104E31852F8044B43F8044B091F5F
S11318A0F9D1EBE710BC704762B38B0708D0521E26
S11318B011F8013B00F8013B00F024808B07F6D1BE
S11318C0830740F0208000BF103A07D330B4B1E85A
S11318D03810103AA0E83810F9D230BC530724BFAE
S11318E0B1E80810A0E8081044BF51F8043B40F8E0
S11318F0043BD20724BF31F8022B20F8022B44BF4B
S11319000B7803707047083A07D3B1E80810083A17
S113191040F8043B40F804CBF7D25307E4E7000057
S11319202DE9F74F04001D005FF00008DDF808B052
S1131930DBF80800DFF83416884204D0382000F0C1
S113194071FD002078E00C34102C01D2102004002A
S113195014F10F000409240101F031FADBF814003A
S11319600600002E62D0CBF8186001F039FA01F0BD
S113197026FADBF818000600002E57D0DBF8140016
S1131980864200D1B04630688146A1454BD3B9EBBD
S113199004008246BAF1100F0AD3A0190700C7F851
S11319A000A0C7F804B0B068B860B760346002E063
S11319B04C46B0680700DBF81400864202D1CBF82D
S11319C0147001E0C8F80870DBF81400CBF81800B4
S11319D0DBF81400CBF81C00DBF81400CBF8200073
S11319E0DBF80C00CBF82400DBF80C00CBF8280063
S11319F00198C068308100207081C6F804B0DBF81B
S1131A002C00B04201D2CBF82C6001F0E9F9002D92
S1131A1006D0B4F10C02002116F10C00FFF722FFEE
S1131A2016F10C0008E0B046B6689AE701F0D8F960
S1131A30042000F0F7FC0020BDE8FE8F2DE9FC4FE8
S1131A4083B083460C005FF00008DDF810A0DAF8DC
S1131A500800DFF81815884204D0382000F0E2FCB2
S1131A6000208BE01BF10C0BBBF1100F01D21020F6
S1131A7083461BF10F005FEA101B5FEA0B1B01F0AA
S1131A809EF9DAF814000500002D71D0CAF8185038
S1131A9001F0A6F901F093F9DAF818000500002D19
S1131AA066D0DAF81400854200D1A8462868814639
S1131AB0B4F10C0015F11001884256D319EB05005E
S1131AC01BEB04010C3988424FD3B4F10C0006001F
S1131AD0701B0190B9EB0B000199401A009001981A
S1131AE02860009810280AD31BEB06000700009812
S1131AF03860C7F804A0A868B860AF6004E0009834
S1131B0010EB0B0BA8680700C6F800B0B760DAF852
S1131B101400CAF81800DAF81400CAF81C00DAF83D
S1131B201400CAF82000DAF80C00CAF82400DAF825
S1131B300C00CAF828000398C06830810020708126
S1131B40C6F804A0DAF82C00A84201D2CAF82C5036
S1131B5001F046F90E98002805D0BBF10C020021D3
S1131B602000FFF77FFE200008E0A846AD688BE761
S1131B7001F036F9042000F055FC002005B0BDE862
S1131B80F08F70B50400DFF8E80300680500002357
S1131B90D5F81423E9692000FFF7C2FE06003000DF
S1131BA070BDF8B504000D00DFF8C403006806003A
S1131BB000200090D6F81433F26929002000FFF7C2
S1131BC03DFF07003800F2BDF8B504000D00DFF852
S1131BD0A0030068060000232200F1692800FFF733
S1131BE09FFE07003800F2BD70B50400DFF88003E3
S1131BF0006805000123D5F81423E9692000FFF7E4
S1131C008FFE0600300070BDF8B504000D00DFF84B
S1131C1060030068060001232200F1692800FFF731
S1131C207FFE07003800F2BD2DE9F84304000D00E3
S1131C301600DFF83C0300680700701981465FEA6C
S1131C4019100001206115F10F0000090001804600
S1131C50C4F80C80C4F82C802069B0EB0800C8F8E4
S1131C6000000020C8F80800C8F80440C4F8148034
S1131C70C4F81880C4F81C80C4F8208001F09FF8D0
S1131C80D7F80803002804D1002117F5427001F0A9
S1131C90C1F9210017F5427001F0C2F901F0A0F872
S1131CA0DFF8C802A0602000BDE8F2832DE9F84304
S1131CB00400DFF8BC0200680500002C04D10120F8
S1131CC000F0B0FB012099E0B4F10C00060070684C
S1131CD08046D8F80800DFF89412884204D03820EF
S1131CE000F0A0FB382089E03089E969C96889B22D
S1131CF0884209D030894FF6FF71884204D003200E
S1131D0000F090FB032079E001F059F8D8F81400B2
S1131D100700D8F81400002803D0D8F8140086422D
S1131D2018D2D8F81400070030688019B8420BD1D3
S1131D303068396808183060B868B0600C22002137
S1131D403800FFF78FFD00E0B760C8F8146000208A
S1131D50814613E0B868864202D3B868002802D1ED
S1131D60012081460AE0BF68C8F81C7001F038F809
S1131D7001F025F8D8F81C000700CAE7B9F1000FF4
S1131D8025D030688019B96888420DD13068B968A7
S1131D90096808183060B8688068B0600C220021B7
S1131DA0B868FFF75FFD01E0B868B0603868C01933
S1131DB0B0420BD13868316808183860B068B86030
S1131DC00C2200213000FFF74DFD00E0BE60D8F882
S1131DD01400C8F81800D8F81400C8F81C00D8F883
S1131DE01400C8F82000D8F80C00C8F82400D8F86B
S1131DF00C00C8F8280000F0F3FF0020BDE8F283CF
S1131E00F8B504000D005A480068060000232200BB
S1131E1016F150012800FFF783FD07003800F2BDDA
S1131E2070B504005248006805000023D5F8142357
S1131E3015F150012000FFF773FD0600300070BD5E
S1131E4070B54B480068040014F551700600350065
S1131E50C4F814533036D4F8B001821B3100280082
S1131E60FFF7E2FE002070BD2DE9F84304000D00E9
S1131E70A8463F4800680600B8F1000F05D1D6F81F
S1131E8014030700F868804609E0B5F10C008046A9
S1131E90D8F804000700D8F8000010EB080800F098
S1131EA08EFF786981463869804519D2B8F80800F0
S1131EB0E16889B288420ED1B9F1000F04D0C1455E
S1131EC002D2D9F80890F7E7C14504D000F088FFA2
S1131ED018F10C000EE0D8F8000010EB0808E2E757
S1131EE03F68F8688046D6F814038742D9D100F0D9
S1131EF077FF0020BDE8F2830200002A05D0B2F18A
S1131F000C0003005981012000E0002070471849AB
S1131F1009680800D0F81403C06A7047B0F10C03D4
S1131F201A00CB6813817047F8B504000D001048FF
S1131F30006806000123220016F150012800FFF773
S1131F40EFFC07003800F2BD70B5040008480068D3
S1131F5005000123D5F8142315F150012000FFF7E3
S1131F60DFFC0600300070BD0000000070656D6C81
S1131F70F803FF1F2DE9F04782B004000D0016009E
S1131F801F005FF0000ADFF8840500688046002D1A
S1131F9004D5152000F046FA002030E0A4B2002C4D
S1131FA003D1D8F8A801040011E0A4B2FF2C04DD89
S1131FB0132000F037FA002021E0A4B2D8F8A801D9
S1131FC0844204D0132000F02DFA002017E000977B
S1131FD0002300223100280000F03FFA8146B9F1C5
S1131FE0000F0BD0D9F80C00824600F0E8FE4846FA
S1131FF000F06DFB00F0F4FE1FF0D6FB5046BDE888
S1132000F68770B504000D00160000233200290085
S1132010200080B2FFF7AEFF70BD2DE9F34F83B00F
S1132020DFF8E80400688246039800280CD003987F
S1132030000CADF80200BDF80200DAF8A81189B26C
S1132040884201D012202AE1039800F0C0F98346A7
S1132050BBF1000F03D01AF15000834501D11220C7
S11320601DE11AF5A67000F05AFD00F0A8FEDBF899
S11320700800092807D100F0B3FE1AF5A67000F095
S113208010FD00200BE1DBF8080002280CD1DAF87F
S11320901C0083453DD0DBF804100800DBF8001079
S11320A00C000460606034E0DBF80800C0051DD556
S11320B0DBF80800C0052CD5DBF804100800DBF8B9
S11320C000100D0005606860BAF88801401EAAF887
S11320D08801DBF8080030F48070CBF80800DBF8E6
S11320E0080050F00300CBF8080012E0DBF8080009
S11320F080050ED5DBF804100800DBF800100E0094
S113210006607060DBF838000089401EDBF8381088
S11321100881DBF8080040050ED5DBF84010080004
S1132120DBF83C100F0007607860DBF838000089AA
S1132130401EDBF8381008810920CBF8080000F0B5
S11321404FFE00200400102C0DD21AEB8400D0F8AE
S11321503402002805D058461AEB8401D1F8341211
S11321608847641CEFE7DBF80C00ADF80000DAF8F0
S11321701C0001909BF8280080061ED400215846BC
S1132180FFF772FE0400002C17D021005846FFF719
S11321906BFE05000198584504D01AF15001200047
S11321A0FFF7BCFE5C4506D0DBF88C00844202D00D
S11321B02000FFF77BFD2C00E5E75FF00040CBF843
S11321C00C00BAF82801012806D10120CAF82C0114
S11321D00020CAF830010EE0BDF80000DAF82C1136
S11321E0884208D2BDF80000CAF82C01DBF8700060
S11321F06C38CAF83001DBF870100800DBF86C109A
S11322008846C0F80080C8F80400BAF82801401EC7
S1132210AAF828011AF5A67000F043FC019883453A
S11322202AD100F0CCFDDBF804100800DBF8001024
S11322308946C0F80090C9F80400584600F097FF9A
S11322409BF82800800615D4DBF88C00002809D000
S11322501AF15001DBF88C00FFF760FEDBF88C000C
S1132260FFF724FD1AF150015846FFF757FE584670
S1132270FFF71CFD1FF096FA584600F078FF9BF814
S1132280280080060AD4DBF88C00002803D0DBF891
S11322908C00FFF70BFD5846FFF708FD002005B042
S11322A0BDE8F08F10B5040000212000FFF7B5FE53
S11322B010BDF8B504000D00200000F088F80600F9
S11322C0002E04D1122000F0ADF8002005E0D6F86D
S11322D080000700C6F880503800F2BD38B504000D
S11322E0200000F074F80500002D04D1122000F045
S11322F099F8002001E0D5F8800032BDF8B504005B
S11323000D00200000F063F80600002E04D1122016
S113231000F088F8002005E0D6F884000700C6F82D
S113232084503800F2BD38B50400200000F04FF8A6
S11323300500002D01D0A86E00E0002032BD70B56C
S113234004002600DFF8C40100680500F068000CF2
S113235080B2D5F8A811884203D0122000F062F8A8
S113236011E000F02CFDB068022805D100F038FD22
S1132370112000F057F806E0300000F0A8F900F052
S11323802FFD1FF011FA70BD81B000208DF8000000
S11323905E480068010000A8CA699269904201D2AF
S11323A0012000E0002001B0704758490968080086
S11323B0018B002902D0406BC06801E0C069C06D88
S11323C07047524909680800C069C0687047F8B589
S11323D004004E4800680700002C01D1F86920E091
S11323E0F86D844202D117F150001AE000F0E7FCC6
S11323F0D7F820016C380500B7F828010600300032
S1132400461E00280AD0E868A04203D100F0E8FC88
S1132410280006E0E86EB0F16C05F0E700F0E0FC9F
S11324200020F2BD0100394B1B681A00138B002BEE
S113243003D0536BDB68180002E0D369DB6D18002E
S1132440002901D0002807D1138B002B02D0536B35
S1132450D96001E0D369D96570472DE9F74F0400CD
S11324600D001E00294800680700002C17D000202A
S11324708246AB46D7F8B8018146D9F80000002857
S113248006D0D9F80000A04202D019F12009F4E7DF
S1132490D9F80000002808D10020814605E0A946AB
S11324A0D9F81800834601208246B9F1000F04D1FF
S11324B01020FFF7B7FF002013E017F5A67000F017
S11324C02EFB01960298009053465A46F869C1685B
S11324D0484600F01DF8804617F5A67000F0E1FAB2
S11324E04046BDE8FE8F000038B5CA4800680400C5
S11324F0E0690500D5F88400002802D0D5F88400EE
S113250080470020FFF7CEFE31BD0000F803FF1F17
S11325102DE9F64F85B004009B46DDF840907B48DA
S113252000688046D8F81801E168884208D218F596
S11325303670844204D00E20FFF774FF0020B9E007
S1132540B9F1000F17D011980700B7F5CA7F04D866
S11325500220FFF767FF0020ACE000234A4602A9EF
S1132560380000F0D5F8050002983F1ABBF1000FBF
S113257018D0203F16E0A0680700D92F01D2D82038
S1132580070017F10F0007093F01BBF1000F02D04C
S113259017F1200000E038000023002202A900F017
S11325A0B7F80500002D04D10A20FFF73BFF0020F7
S11325B080E00320A860D5F88C00002803D0D5F86B
S11325C08C00060002E0029840190600BBF1000FDF
S11325D00CD003962036039821002022FFF774F9CB
S11325E003980400206850F0004020603900300057
S11325F000F063F8E0687FF00F01D8F8202001FBB9
S113260000208246C5F81CA0C5F820A0BAF80C002A
S1132610A8846069A862B9F1000F03D0A86A50F0D9
S11326202000A86206980190BAF80C0000902300DC
S11326303A003100280000F09BFD002801D1002061
S113264038E0AC6620686866E069002808D0D5E9FF
S11326502923E069002110185941C5E9290109E03D
S113266015F1A40018F53F71B1E80C10A0E80C10A6
S11326700C390C38D8F8F802022803D1A86A50F0B3
S11326800400A862D8F89C026867D8F8A002A8677A
S1132690D8F8A402E86705982866B9F1000F08D1B4
S11326A029002800FFF73AFC2900D5F88C00FFF731
S11326B035FC280007B0BDE8F08F8908491C491E85
S11326C0002903D0544A0260001DF8E7704710B493
S11326D0504C24682100C4692200546823004C6AC9
S11326E0944200D24A620224846043601C680460FD
S11326F0186050600024C0F8B0400024C0F8B44012
S11327000024C0F8B84010BC70470000F803FF1F55
S11327102DE9FB4F82B014005FF0BC093D4800680E
S11327200500B5F828014FF6FE71884201DB002050
S11327306CE00398C0F80090002C06D0A3464A46EB
S113274000215846FFF78EF822E04846FFF74CFA7E
S11327508346BBF1000F04D00298FFF712FACBF8BE
S11327608C00BBF1000F01D158464FE0DBF88C0020
S1132770002804D15846FFF799FA002046E02421A6
S11327805846FFF7B9FB2521DBF88C00FFF7B4FBB3
S1132790D5F82C018246D5F830010600D5F8A801F9
S11327A01FFA8AFA5AEA0040CBF80C00002E03D133
S11327B015F59070009002E016F16C0000901BF18A
S11327C06C02009915F5907000F064FCD8464646FA
S11327D0F06E6C380700B8461AF1010A1FFA8AFA3B
S11327E0BAF1000F01D10120824615F5907087429D
S11327F005D0F86880B21FFA8AFA5045E7D0C5F8C8
S113280030611FFA8AFAC5F82CA1584605B0BDE814
S1132810F08F0000F803FF1F6B6174730200D36D27
S11328201800002901D0002800D1D16570470000AC
S113283030B4324C2468200010F5D47421004C6963
S11328402200082A04D30724220007244C6105E04F
S1132850002A03D10124220001244C61540114F004
S1132860E004C482002423006A2B04D2244CC02533
S11328701D555B1CF8E7234C00252B00042B05D2C7
S11328805FF0FF3544F823505B1CF7E730BC70471A
S1132890F8B51A480068040000202062D4F8180132
S11328A0801C06003001FFF79FF90500002D01D1BF
S11328B0042022E005212800FFF71EFB3700380022
S11328C0471E002816D02D606D60EF81D4F8BC013E
S11328D0C019072807D2D4F8BC01C019400110F070
S11328E0E000A88101E0C020A881206AA8602562D8
S11328F01035E4E7206A60620020F2BDF803FF1F90
S113290000E400E080E100E02DE9F84304000D005C
S113291016001F00DFF87C0200688046A5610021D4
S113292014F1080000F076FB00F049FA002E15D1EE
S1132930D8F84001814618F5A070814509D0A14519
S113294004D100F04DFA4FF482600DE0D9F8009004
S1132950F1E7210018F5A07000F062FBDFF83802FF
S1132960606100F03DFA0020BDE8F28338B5040050
S11329700D000023002229002000FFF7C5FF32BD0F
S113298038B504000D000023012229002000FFF7C0
S1132990BBFF32BD2DE9F04704000D00DFF8F40160
S11329A00068060000F00BFA6069DFF8EC11884259
S11329B003D000F015FA1F204CE000206061208A4B
S11329C0002829D014F1080000F04AFB8146B9F12F
S11329D03C09D9F80800C0051AD5D9F80410080034
S11329E0D9F800108A46C0F800A0CAF80400B6F866
S11329F08801401EA6F88801D9F8080030F48070D8
S1132A00C9F80800D9F8080050F00300C9F8080014
S1132A104846FFF75CFED2E7D6F84001070016F5FA
S1132A20A070874211D0A7420DD1616808002168C7
S1132A308846C0F80080C8F80400B6F84801401E73
S1132A40A6F8480101E03F68E9E700F0C9F91EF083
S1132A50ABFE0020BDE8F08710B504000021200083
S1132A60FFF798FF10BD70B50400DFF82801006877
S1132A7005006069DFF82011884201D000200FE0D2
S1132A8000F09DF9A069012802DA0020060004E0A4
S1132A90A069401EA0610120060000F0A1F93000E9
S1132AA070BDF8B505003B480068060068693A49FE
S1132AB0884201D01F2031E000F081F9A869002884
S1132AC026D4288A002823D015F1080000F0C8FA7B
S1132AD007003C3FB868C00512D57968080039681A
S1132AE00C0004606060B6F88801401EA6F88801F6
S1132AF0B86830F48070B860B86850F00300B8600B
S1132B000020B8633800FFF7E2FD1EF04DFE02E03E
S1132B10A869401CA86100F063F90020F2BDF8B573
S1132B2004001C4800680500288B002801D00D20F3
S1132B302FE060691849884201D01F2029E000F085
S1132B403EF9A069012816DAE869060040F22B4034
S1132B50B06014F10800B0637168080031680F00B8
S1132B600760786016F13C0114F1080000F058FA8F
S1132B701EF028FE02E0A069401EA06160690649BB
S1132B80884203D000F02CF91F2002E000F028F95D
S1132B900020F2BDF803FF1F6D73776CB0FBF1F2F8
S1132BA0521E644B1A60704710B500F09FFA002162
S1132BB0C0B200F09FFA0400C8212000FFF7EEFF26
S1132BC05D48072101605D48006850F080505B4912
S1132BD008605B48006850F080405949086010BDA7
S1132BE070B558480068040042F26200FDF726FE02
S1132BF05FF000510020FEF7D4FFFA21002000F01E
S1132C00F7FA0500002D01D028006CE04E4800F0D2
S1132C10FDFA06000F2000F0E5FD00220FF2C901C5
S1132C200F2000F059F9002801D126205BE0FEF7BF
S1132C30ABFBFFF7B9FF0120FEF715FB002801D01D
S1132C40262050E0FEF788FB002801D026204AE029
S1132C500020FEF708FB002801D0262043E0394875
S1132C60006804003948C4F89801C82000F0B4FD95
S1132C70D4F8980100F0C4FD00210FF2790000F0AF
S1132C80B7FD00F03FFE00F047FE0500002D01D027
S1132C90280028E0FEF71BFD002805D1042000F0E1
S1132CA05AFE012000F0EFFF29480268284929480C
S1132CB001F04AF8284802682749284801F044F8F6
S1132CC02749284801F036FB2549274801F0C0FF71
S1132CD02649274802F046FB2649274802F068FFA8
S1132CE003F00AFD002070BD10B5040000F074FC70
S1132CF010BD000010B40100002423000D4C246812
S1132D002402240A641C20001C4C24682402240A83
S1132D1022001B4C2468640105D5184C2468240245
S1132D20240A22000300002A00D10200801A181885
S1132D3010BC704714E000E010E000E01CED00E07F
S1132D4020ED00E0F803FF1F00000000005307001F
S1132D50E85102006050020008520200685002006C
S1132D60045102007050020078500200E05002004A
S1132D7080500200F85002008850020018E000E081
S1132D8004ED00E0F8B50500DFF87C0200680600F9
S1132D90F069070000F013F8B8680B280CD00B207A
S1132DA0B860BD6341213800FFF738FD7968080039
S1132DB039680C000460606000F012F8F1BDDFF8BF
S1132DC0481209680800C169496D002902D1C18A05
S1132DD081F31188C169496D491CC2695165704705
S1132DE0DFF8241209680800C169496D002911D06F
S1132DF0C169496D491EC269516500290AD1018B17
S1132E00002904D0416B896881F3118802E0418B69
S1132E1081F31188704770B50400DFF8EC01006895
S1132E200500A86B002804D11820FFF7FBFA002046
S1132E3021E0E86A844202D3286BA04204D2142021
S1132E40FFF7F0FA002016E0FFF7B9FFE86A201A4E
S1132E50C008A96B51F820000600002E04D0306889
S1132E60A04201D03669F8E7FFF7BAFF002E01D07F
S1132E70706800E0654870BD70B504006248006881
S1132E800500A86B002804D11820FFF7CBFA002016
S1132E9021E0E86A844202D3286BA04204D21420C1
S1132EA0FFF7C0FA002016E0FFF789FFE86A201A4E
S1132EB0C008A96B51F820000600002E04D0306829
S1132EC0A04201D03669F8E7FFF78AFF002E01D04F
S1132ED0F06800E0002070BD2DE9F84304000D0007
S1132EE01600494800680700B86B002804D1182070
S1132EF0FFF798FA00204FE0F86A844202D3386B57
S1132F00A04204D21420FFF78DFA002044E0FFF71A
S1132F1056FFF86A201AC008B96B51F820008046A1
S1132F20B8F1000F06D0D8F80000A04202D0D8F8BB
S1132F301080F5E7B8F1000F22D11420FEF770FFDE
S1132F408046B8F1000F06D1FFF74AFF0420FFF7CF
S1132F5069FA002020E023214046FEF7CDFFF86AFD
S1132F60201AC008B96B51F82000C8F81000F86A9C
S1132F70201AC008B96B41F820802448814602E039
S1132F80D8F804008146C8F80040C8F80450C8F8CE
S1132F900C60FFF725FF4846BDE8F2832DE9F041B8
S1132FA004000D00A54201D20C202BE01648006855
S1132FB006001748C6F80C011448B062281B401CD0
S1132FC0C008401C80465FEA8800FEF7BDFF07008A
S1132FD0002F01D1042015E003213800FEF78CFFF7
S1132FE0B763F4623563A6F840830320A6F842036E
S1132FF04046B0F10108002803D0002047F828001B
S1133000F6E70020BDE8F081F803FF1F852D0000DE
S1133010A7180200006040600022028141817047CD
S113302038B504000D00FFF7CAFE6089002807D0F8
S113303020896189884203D3FFF7D2FE00200EE085
S1133040616809680800286061680D6061686960EA
S113305045602089401C2081FFF7C2FE012032BD5B
S113306070B50400FFF7ABFE2089002803D1FFF7F9
S1133070B7FE00200DE02068050069680800296893
S11330800E00066070602089401E2081FFF7A8FEB4
S1133090280070BD70B504000D001600002D00D18D
S11330A02500FFF78CFE6089002807D020896189FC
S11330B0884203D3FFF794FE00200BE02968080040
S11330C030602E60756046602089401C2081FFF7C7
S11330D087FE012070BD000080B5C046C046024A8C
S11330E011001820ABBEFBE72600020080B5FEF7F6
S11330F0D4F802BD38B504000D002900C9B220007F
S1133100C0B2FEF7CEF832BD62F30F2262F31F4263
S1133110401810F0030308D0C91A1FD3DB0748BFB7
S113312000F8012D28BF20F8022D130030B41446F6
S11331301546103928BF20E93C00FAD8490728BFB2
S113314020E90C0048BF40F8042D890028BF20F86E
S1133150022D48BF00F8012D30BC7047C91818BFB4
S113316000F8012DCB0728BF00F8012D70477047E8
S11331702DE9F44F04000D001E000A9FDDF82C8099
S11331805FF0010B00984019401E000900018146C0
S1133190B9F164008246C4F8109015F10F000009DB
S11331A00001A061C4F814A0642200215046FEF777
S11331B059FB0E48CAF84000CAF82C80706850F0D9
S11331C00100CAF844005FF08070CAF84800CAF8E9
S11331D058800020CAF80000CAF804707FF002008A
S11331E0CAF828005846BDE8F28F00BFE924000061
S11331F070B504000D0029002000FFF7CFFE060083
S1133200002E01D103F094FA300070BD0100034A8E
S113321012681000014A11607047000008ED00E0D8
S113322070B50400DFF8BC0600680500002C15D05A
S1133230E869060016F14401200003F083FAFFF761
S1133240BEFD16F1440215F5B47116F1440003F005
S1133250BDFA300000F020F8FFF7C2FD70BD70B574
S11332600400DFF8800600680500002C03D10C2060
S1133270FFF7D8F80FE0E8690600FFF7A0FD16F1A4
S1133280440215F5B471200003F0A0FA300000F0F8
S113329003F8FFF7A5FD70BD2DE9F8430400DFF83E
S11332A044060068804618F5C0708146B8F8880165
S11332B0002826D0D8F880010500B8F88801401C01
S11332C00600761E002E1CD0D4E91123D5E9110185
S11332D08B4204D801D3824201D201270CE0D5E904
S11332E01123D4E911018B4205D801D3824202D2C1
S11332F05FF0FF3700E00027002F02D5A9462D68B4
S1133300DFE76168080021688C46C0F800C0CCF88B
S113331004002200494618F5C070FFF7BBFEA06800
S113332050F48070A0601EF04DFABDE8F18370B5D2
S11333300400DFF8B40500680500002C03D10C205C
S1133340FFF770F80EE0E869060016F144000ECCB1
S11333500EC00C3C0C38FFF732FD3000FFF79CFF29
S1133360FFF73EFD70BD10B584B00400002C06D0FC
S113337000A800F005F8210000A803F051FA1FBDD1
S113338038B50400002C1AD0DFF85C05006805008D
S1133390FFF715FD15F5B4700EC80EC40C380C3CBF
S11333A0D5F8A001002805D0D5F8A401D5F8A011BE
S11333B08847A060FFF714FD200003F083FA31BDB5
S11333C0F8B504000D00002C01D0002D01D100201F
S11333D0C4E0A089B0F57A7F0FDB6089A1894FF43E
S11333E07A7291FBF2F108186081A0894FF47A7126
S11333F090FBF1F201FB1200A08160893C280DDBF7
S1133400208961893C2291FBF2F1081820816089AE
S11334103C2190FBF1F201FB1200608120893C28E1
S11334200DDBE08821893C2291FBF2F10818E08051
S113343020893C2190FBF1F201FB12002081E088FD
S113344018280DDBA088E188182291FBF2F10818F6
S1133450A080E088182190FBF1F201FB1200E080CB
S1133460A088002801D1002078E060880D280DDBB9
S1133470208861880C2291FBF2F108182080608872
S11334800C2190FBF1F201FB12006080208840F2D5
S1133490B271884202DA40F2B2702080208800F0D3
S11334A075F9070060880D21DFF8402401FB07212E
S11334B0405CA18880B2884210D2A08861880D2225
S11334C0DFF8283402FB0732895C401AA080608848
S11334D0401C608060880D28E0DB04E02088B0F5A3
S11334E00C6F11DB0EE0208861880C2291FBF2F155
S11334F00818208060880C2190FBF1F201FB120077
S11335006080CBE7002029E0DFF8E4032188DFF8BE
S1133510E42312EB81014058060060883421DFF86F
S1133520D82301FB072111EB800050F8040C861905
S1133530A088401EDFF8C41301FB0066E0884FF446
S1133540616101FB006620893C2101FB0066608902
S113355016FA80F62E60A08968600120F2BD10B5CD
S113356084B0040000A800F011F8210000A803F0C2
S113357057F91FBDDFF8702312681100D1F89421A8
S113358010004FF47A72B2FBF0F0704738B50400C3
S1133590002C20D0DFF8500300680500FFF70FFC73
S11335A015F5B4700EC80EC40C380C3CD5F8A00147
S11335B0002805D0D5F8A401D5F8A0118847A0604B
S11335C0220015F5BA71200003F000F9FFF708FC9A
S11335D0200003F077F931BD2DE9F84FDFF8080337
S11335E000680400D4E95A01401C51F10001C4E907
S11335F05A01FFF7E4FBD4F8A001002806D0D4F860
S1133600A401D4F8A0118847C4F8700114F5B4706B
S113361003F058F9B4F888010600002E4CD0D4F811
S113362080010500761C761E002E45D0286883464E
S1133630D5E91123D4E95A018B4204D801D382423B
S113364001D201270CE0D4E95A23D5E911018B42B8
S113365005D801D3824202D25FF0FF3700E0002791
S1133660002F29D4B4F88801401EA4F888016968A1
S1133670080029688A46C0F800A0CAF80400A868AF
S113368030F48070A860A868400510D5A86830F4AC
S11336908060A860296C0800E96B8946C0F8009036
S11336A0C9F80400A86B0089401EA96B0881280092
S11336B0FFF70DF85D46B6E7E069050095F82800C8
S11336C040072ED5D5E92C01401C51F10001C5E974
S11336D02C01A86AC00424D4D5E92923D5E92C01F6
S11336E08B4204D801D3824201D201270CE0D5E9F0
S11336F02C23D5E929018B4205D801D3824202D279
S11337005FF0FF3700E00027002F0AD46968080043
S113371029688846C0F80080C8F804002800FEF72D
S1133720D6FFFFF75DFBD4F83C03002802D0D4F8A1
S11337303C038047BDE8F18F3EB50400DFF8A801E3
S1133740006805006068B0F57A7F0FD3206861686F
S11337504FF47A72B1FBF2F10818206060684FF4FC
S11337607A71B0FBF1F201FB1200606000A9200045
S113377003F0C4F8FFF723FB15F5BA7215F5B4711D
S113378000A803F0CFF8FFF72BFB37BD010089B287
S1133790642291FBF2F302FB1312002A0ED189B2C8
S11337A04FF4C87291FBF2F302FB1312002A02D108
S11337B0012210000FE0002210000CE089B2042264
S11337C091FBF2F303FB1213002B02D10122100030
S11337D001E0002210007047434A12681100C1F84A
S11337E094017047404A12681100C1F88C01704777
S11337F03D4B1B681A00C2F8A001C2F8A41170471F
S1133800394A12681100C1F89C017047F8B50400E8
S11338100D00002C01D0002D01D1002060E02068B3
S11338203749884203D26068B0F57A7F01D300201B
S113383056E000202880206829882E4A12EB810156
S11338404968884203D32888401C2880F3E720680D
S11338502988284A52F82110401A0600288800F2C4
S1133860B27028802888FFF791FF07000120688044
S113387068883421204A01FB072151F82000864240
S113388003D36888401C6880F2E7688834211A4AA8
S113389001FB072111EB800050F8040C361A17487D
S11338A0B6FBF0F0A880A888144901FB1066A8882C
S11338B0401CA8804FF46160B6FBF0F0E880E88813
S11338C04FF4616101FB10663C20B6FBF0F02881E7
S11338D028893C2101FB10666E816068A881012063
S11338E0F2BD0000F803FF1FF803FF1F1C4D020088
S11338F038E1FFFFA04D0200384D02008051010065
S1133900015786F4034800684008400001490860F4
S11339100020704700D0004010B50748006804003C
S1133920002114F52470FFF775FB012114F51D70B7
S1133930FFF71CF810BD00BFF803FF1F4FF47A71A6
S113394001FB00F1602202FB01F3002B02D000BF57
S11339505B1EFAE7704770B504000025DFF8DC62EF
S1133960E00720D5FFF72BFA306950F001003061F1
S1133970DFF8CC0200210160DFF8C80200210160F9
S1133980DFF8C40200210160DFF8C00200210160F9
S113399030694008400030615FF0FF30B0600120C2
S11339A03060FFF71DFAA00715D5FFF708FA306954
S11339B050F001003061306940084000306101205E
S11339C03060DFF8840200210160DFF8800200210A
S11339D00160FFF705FA600729D53069C00703D5F0
S11339E0306940084000306132000FF24901522032
S11339F0FFF772FA002802D1FEF7D7FC0500002D6C
S1133A0015D17069C00602D53069C0050AD4306981
S1133A1050F4807030617D20FFF790FF706950F0A2
S1133A201000706101220421522002F09FFF28003F
S1133A3070BD00002DE9F0410400DFF800525FF092
S1133A4001086869060016F0030F1DD0686930F09C
S1133A50100068615FF0FF30A86001202860686989
S1133A6050F010006861F00701D5082000E0002044
S1133A70B10701D5042100E00021DFF8D02112684C
S1133A80084310437149086070072ED5A8680700E1
S1133A906B48006887420DD16C48006850F0010003
S1133AA06A490860684800684008400000F09EF8D1
S1133AB0002080466348006887420DD1634800684F
S1133AC050F00200614908605F48006830F002006D
S1133AD000F08CF800208046B8F1010F05D15A4857
S1133AE000688008800000F081F8594800680028C8
S1133AF009D05648006854490968084203D0280090
S1133B00534909688847BDE8F0810100002089B263
S1133B10042291FBF2F303FB1213002B16D10122B2
S1133B20100089B2642291FBF2F302FB1312002A03
S1133B3001D10022100089B24FF4C87291FBF2F354
S1133B4002FB1312002A01D1012210007047F8B5BC
S1133B50040000252088A0F2B27040F26D114843A1
S1133B60050040F2B27007002088874207D238006F
S1133B7080B2FFF7CAFF401905007F1CF4E701205B
S1133B800600608886420FD2324810EB460030F8B7
S1133B90020C15FA80F5022E04D12088FFF7B5FF38
S1133BA040190500761CECE7A088401E45192A48F8
S1133BB0E1884FF46162514300FB051021893C22E6
S1133BC002FB0100618910FA81F0F2BD1B494A69C8
S1133BD032F010024A6102680A604A6952F0100227
S1133BE04A61704715490A680260704710B4134966
S1133BF010F00302002A03D15FF0FF338B601AE058
S1133C00032A10D10B681A000E4B1B689B1A0C4C2C
S1133C102468A41AA34202D3094B1B6801E0094B90
S1133C201B688B6007E0C30702D5054B1B6801E0E6
S1133C30044B1B688B6010BC7047000000D003402D
S1133C401409FF1F1809FF1F1C09FF1F2009FF1F6C
S1133C502409FF1F345302008051010030B583B0A2
S1133C6004000D002068009000200190290000A8A5
S1133C70FFF7CCFD37BD38B504000D002000FFF779
S1133C8066FF286031BD10B588B00400012C0ED148
S1133C9000A8FFF7A7FF03A900A8FFF7DFFF01A90A
S1133CA003A8FFF78DFB01A8FFF746FD0DE001A86F
S1133CB0FFF755FC03A901A8FFF7A8FD00A903A875
S1133CC0FFF7D9FF00A8FFF781FF002008B010BD5F
S1133CD070B403000025002400291AD0002A18D04B
S1133CE01001B1FBF0F00500002D0DD0280100FB00
S1133CF01210560816EB4000B0FBF2F00400202C22
S1133D0002D36D1C00200400B5F5005F01D316201A
S1133D100EE0280A10F01F0018705D70987A10F0F9
S1133D20E0009872987A14F01F06304398720020CD
S1133D3070BC7047C17851F00C01C1707047C178F4
S1133D4011F0F301C170704770B586B004000D0026
S1133D501600049603950FF2E11002900FF2791009
S1133D6001900FF2611000900FF245130FF211123F
S1133D700FF20D01200002F05BFE06B070BD0000E2
S1133D802DE9F84F04000D0016006068814648468E
S1133D90C0B203F01FF90700002F01D12B206CE003
S1133DA05820FEF7D1F88046B8F1000F01D1042065
S1133DB063E0C5F80080C8F8207040462100202246
S1133DC0FDF782FD0120C8F83000D8F808008246CB
S1133DD0152083465946C9B24846C0B2FDF7DCFAFD
S1133DE004214846C0B2FDF7D7FAD8F80C20514652
S1133DF03800FFF76DFF0020B870F87810F0FD0070
S1133E00F870B87A10F03F00B872002038720020C1
S1133E1078720020B871387CC0F30210C0B2002858
S1133E2002D10020F87407E00120397CC1F30211AB
S1133E30491C8840401EF87401207875F87810F009
S1133E40F300F870387C50F088003874787C50F0B7
S1133E50C00078745FEACB6003D53800FFF76AFFCF
S1133E6002E03800FFF76BFF5FEA0B7004D508210E
S1133E704846C0B2FDF790FA0020BDE8F28F00007A
S1133E8070B504000D00042604216068C0B2FDF77B
S1133E9083FA286A0021C170300704D508216068BC
S1133EA0C0B2FDF779FA2800FDF700FF002070BDCD
S1133EB00100086A02799206FCD58A6B521C8A6357
S1133EC0C0797047026A13791B06FCD5D171C36BA4
S1133ED05B1CC3637047000030B401000A000B6A26
S1133EE01C79200702D5D06C401CD064E00702D5B1
S1133EF0506C401C5064600702D5506D401C5065E6
S1133F00A00702D5906C401C90640A2004420BD098
S1133F10D8799D7CED0707D5587C50F04000587443
S1133F20987C50F001009874987C400601D40120DC
S1133F3000E0002030BC70472DE9F04104000D0082
S1133F401600276A2800C01E00F0708140F6FF4169
S1133F50401A00F03781401E70D0401E71D0401EC0
S1133F6000F07F80401E00F09580801F2ED0401E00
S1133F7018D0401E00F06B81401E00F05E81401E90
S1133F8000F0B780401E00F0A480001F00F0938072
S1133F90401E00F09780401E00F03481401E00F067
S1133FA03E818FE108208046B878C0060BD594F88E
S1133FB03000C00707D5B878800702D5B87A8006E4
S1133FC001D518F10108C6F800807EE130680828A0
S1133FD004D03068092801D00C2077E13068082823
S1133FE014D194F83000C00727D5B87A10F0DF0058
S1133FF0B872B878800704D5B87850F01000B8705B
S11340001BE0B87810F0EF00B87016E094F83000B8
S1134010C00710D5B87850F01000B870B878800791
S113402004D5B87A50F02000B87206E0B87A10F0DF
S1134030DF00B87201E0162048E146E1E068306034
S113404043E1A0688046326841463800FFF740FEED
S11340508046B8F1000F01D0404637E13068E06097
S113406033E1606B3060361DA06B3060361DE06B51
S11340703060361D206C3060361D606C3060361D3B
S1134080A06C3060361DE06C3060361D206D3060F1
S1134090361D1AE1002060630020A0630020E06365
S11340A000202064002060640020A0640020E064FC
S11340B00020206509E13879C0F3C01010F0010038
S11340C0306002E13879C0F3401010F00100306034
S11340D0FBE001208046B878800707D5B878C00790
S11340E002D50220804601E003208046C6F8008005
S11340F0EBE03068012804D061D3032838D014D30E
S11341005DE0B87880070FD5B87810F0FC00B8707F
S1134110B87A800604D5B87A10F0DF00B87203E0EC
S1134120B87810F0EF00B8704BE094F83000C00796
S113413001D41620CAE0B878800704D5B87850F0C6
S11341400100B87013E0B87850F00300B870B87884
S1134150C00604D5B87A50F02000B87207E0B87AE7
S113416010F0DF00B872B87850F01000B87028E092
S113417094F83000C00701D41620A7E0B87880076F
S113418004D5B87810F0FE00B87017E0B87850F095
S11341900200B870B87810F0FE00B870B878C006A5
S11341A004D5B87A50F02000B87207E0B87A10F05D
S11341B0DF00B872B87850F01000B87001E00C203D
S11341C084E082E0307880060BD56068FDF71EFB42
S11341D0787B10F0F6007873787B50F002007873E7
S11341E00FE03078000708D5787B10F0FD00787375
S11341F0787B50F00900787303E0787B10F0F400CA
S1134200787362E03068012804D1F87810F0FB007C
S1134210F87003E0F87850F00400F87055E038794D
S1134220002801D1012000E000204EE0B87C000607
S1134230FCD538794006FCD547E094F83000C00737
S113424002D50120306001E0032030603DE0306899
S1134250012814D194F83000C00732D4B87A10F091
S1134260DF00B872B87810F0EF00B870B87910F0C9
S1134270BF00B871206B50F00100206321E030686A
S113428003281CD194F83000C0071AD5B878C006AA
S113429002D4B878800701D5162017E0B87A10F058
S11342A0DF00B872B87850F01000B870B87950F0E8
S11342B04000B871206B40084000206301E00C20EE
S11342C004E002E040F6092000E00020BDE8F081AF
S11342D0F0B50200002000275FF0FF3C65465FF068
S11342E0000C6346032B1FD25FF0000C6446402C85
S11342F018D2DFF8D8C45CF823C0DFF8D4E45EF841
S113430024E00EFB0CFC01FB0CFCBCEB020C66462F
S1134310002E00D57642AE4202D2350018002700A6
S1134320641CE4E75B1CDDE78001C0B217F03F07C3
S11343303843F0BD3EB504000D0002950FF249105C
S113434001900FF2515000900FF28D430FF2FD02D5
S11343500FF20901200002F06BFE3EBD2DE9F04191
S113436004000D001600207802F050FF0700002F13
S113437002D14AF6021067E05C20FDF7E5FD8046B5
S1134380B8F1000F01D104205EE040F20B41404639
S1134390FDF7B2FD2078FDF7D7F9C5F80080404657
S11343A021001422FDF790FAC8F814700020C8F810
S11343B018000020C8F81C000020C8F8200060780D
S11343C088F82400002088F82500002088F82600BA
S11343D0002088F827000020C8F828000020C8F82A
S11343E02C000020C8F830000020C8F83400002059
S11343F0C8F838000020C8F83C000020C8F8400085
S11344000020C8F844000020C8F848000020C8F87C
S11344104C000020C8F850000020C8F854000020C8
S1134420C8F858000020B8700020F870A078400048
S113443038706168DFF89C03FFF74AFF7870B8783A
S113444050F08000B8700020BDE8F08170B5040021
S11344500D00002D01D0002C02D14AF6031011E00A
S113446068690600F078800602D54AF6011009E072
S11344700020B070FF20F070A069FDF717FC002049
S1134480A061002070BD00002DE9F04788B0040051
S11344900D0016005FF00008606907002800C01EC8
S11344A036D040F2FE31401A00F0FE80401E00F08B
S11344B00E81401E00F0D680401E00F0DF80401EBA
S11344C000F0E880401E00F03081401E00F037818B
S11344D0401E00F01681401E00F01D81401E00F0B9
S11344E0AE80401E4BD0401E68D0401E00F031818B
S11344F0401E00F03881401E00F04781401E00F04D
S1134500A780401E00F0A980401E00F04B8158E1B6
S113451000208DF800009DF80000FF2805D09DF8CC
S11345200000401C8DF80000F5E7F8788DF80000D5
S1134530B878C00609D59DF8000010F0A000202826
S1134540E6D0E06B216C8842E2D1206CE06394F801
S1134550270080070BD59DF80000800607D40020B3
S113456084F827000020A062072084F82500002E8C
S113457004D09DF8000010F00100306021E14AF6FB
S113458001108046B878800617D594F825000228D3
S113459003D1E06B216C88420AD094F825000328EB
S11345A002D1A06A002803D094F82500072804D17A
S11345B0012084F825000020804602E1B87810F03C
S11345C0E700B870F87850F01200F8700020A0628C
S11345D0002084F82700002084F82500206B606305
S11345E0B878800603D438798DF8000003E0B878F1
S11345F010F0DF00B87000208DF800009DF8000076
S1134600FF2805D09DF80000401C8DF80000F5E758
S1134610F8788DF800009DF8000080060ED59DF80E
S11346200000800706D5F87850F00200F870387959
S11346308DF80000F8788DF80000ECE7C1E0002E5A
S113464003D14AF60310804601E03068A062B8E066
S1134650B87810F07F00B870B3E0B87850F08000FC
S1134660B870AEE094F82500002803D04AF6011093
S1134670804602E0002084F82400A2E094F825009B
S1134680002803D04AF60110804602E0012084F895
S1134690240096E0002E03D14AF60310804602E07F
S11346A094F8240030608CE0002E03D14AF6031005
S11346B080460BE0F878800603D54AF60110804660
S11346C004E031684348FFF703FE787079E0002E78
S11346D003D14AF60310804612E0787880093B49FA
S11346E051F820008246787810F03F00384951F89C
S11346F020008146374809FB0AF1B0FBF1F0306035
S11347005FE0002E03D14AF60310804602E03068D1
S113471084F8260055E0002E03D14AF603108046A3
S113472002E094F8260030604BE0002E03D14AF6F4
S11347300310804602E030684000387041E0002EEB
S113474003D14AF60310804602E03878400830600E
S113475037E0002E03D14AF60310804602E094F8B5
S1134760250030602DE0002E03D14AF60310804668
S11347700AE001A814F144011822FDF7A5F830005D
S113478001A91822FDF7A0F81BE0002060640020B6
S1134790A0640020E0640020206500206065002003
S11347A0A0650EE0002E03D14AF60310804607E010
S11347B0F878800602D50120306001E000203060E6
S11347C0FFE7404608B0BDE8F08700002852020029
S11347D034520200006CDC022DE9F84304000D00A1
S11347E01600A06907007869804697F8270050F002
S11347F0010087F8270097F8250081465FFA89F9B8
S1134800B9F1000F04D05FFA89F9B9F1010F38D179
S1134810032087F8250097F82400002831D198F860
S1134820020050F0100088F8020098F8030050F0DD
S1134830020088F803005FFA89F9B9F1010F06D183
S113484098F8020050F0040088F8020005E098F897
S1134850020050F0200088F8020097F8270050F07A
S1134860020087F8270097F82600400050F0010066
S113487088F80400F86C401CF86498F8030080077A
S1134880FBD533002A003900404600F05EF8BDE84D
S1134890F28300002DE9F84304000D001600A0691E
S11348A007007869804697F8270010F0FE0087F823
S11348B0270097F8250081465FFA89F9B9F1000FBE
S11348C004D05FFA89F9B9F1010F36D1022087F8D3
S11348D0250097F8240000282FD198F8020050F002
S11348E0100088F8020098F8030050F0020088F8DD
S11348F003005FFA89F9B9F1010F06D198F80200B3
S113490050F0040088F8020005E098F8020050F026
S1134910200088F8020097F8270050F0020087F87A
S1134920270097F82600400088F80400F86C401C23
S1134930F86498F803008007FBD533002A00390097
S1134940404600F002F8BDE8F28378B40400002089
S11349500600B342C0F07981E0780500A0788006B3
S113496013D49E4201D1300070E191F827008007F2
S11349700BD5A80609D4002081F8270000208862FE
S1134980072081F82500300060E1A807E4D591F8FC
S1134990270050F0020081F82700A078800640F13B
S11349A09680A078C00652D5E8070BD5E07850F081
S11349B00200E070072081F82500886D401C88659E
S11349C0330040E191F82500022813D191F8270023
S11349D0C0070DD49E4280F03681E07850F002008A
S11349E0E07010782071521CC86C401CC8642AE125
S11349F0330028E191F82500032826D191F82700F7
S1134A00C00720D5A07810F0EF00A070886A0128B4
S1134A1004D1A07850F00800A07003E0A07810F052
S1134A20F700A070E07850F00200E070886A002877
S1134A3004D1072081F82500330004E120798DF8A2
S1134A400000761EFFE03300FDE03300FBE091F848
S1134A502500032839D191F82700C00733D5886A87
S1134A60002830D09E4280F0EE80E07850F00200C2
S1134A70E070886A401E8862886A012804D1A078A0
S1134A8050F00800A07003E0A07810F0F700A070C8
S1134A90886A002803D1A07850F01000A070207913
S1134AA01070521C886A002809D1A07810F0EF0019
S1134AB0A070072081F82500701C03001E00886C7C
S1134AC0401C8864BFE03300BDE03300BBE0E8066F
S1134AD00AD5E07850F01000E070062081F8250037
S1134AE0086D401C0865330068064AD591F8240017
S1134AF0002802D1486D401C486568071AD5052076
S1134B0081F8250091F82700C00711D49E4280F057
S1134B109A80A07850F01000A070E07850F0020065
S1134B20E07010782071521CC86C401CC8648AE084
S1134B30330088E0042081F8250091F82700C0079D
S1134B401DD5002E1BD1886A002818D0A07810F03B
S1134B50EF00A070E07850F00200E070886A01284D
S1134B6004D1A07850F00800A07003E0A07810F001
S1134B70F700A07020798DF80000761E63E0330002
S1134B8061E0E8065ED4A078C00628D5E8070BD516
S1134B90E07850F00200E070072081F82500886D6D
S1134BA0401C886533004EE091F82500022803D0AC
S1134BB091F82500052810D191F82700C0070CD4DE
S1134BC09E4240D2E07850F00200E07010782071EC
S1134BD0521CC86C401CC86435E0330033E091F8C3
S1134BE02500032803D091F82500042828D191F842
S1134BF02700C00724D5886A002821D09E4222D2EB
S1134C00E07850F00200E070886A401E8862886A8A
S1134C10012804D1A07850F00800A07003E0A07827
S1134C2010F0F700A070886A002802D1072081F8EC
S1134C30250020791070521C886C401C886402E0A6
S1134C40330000E03300761C83E6180072BC704722
S1134C503EB504000D000295074801900FF2512063
S1134C6000900FF235130FF2D5020FF2110120005C
S1134C7002F0F0FA3EBD0000894400002DE9F0473F
S1134C8004000D00606980462A0014F118014046B2
S1134C90FFF764FB8246BAF1000F01D050464AE0A8
S1134CA0A06907007869060098F8000002F0C2FACB
S1134CB08146B9F1000F02D14AF602103BE0C7F871
S1134CC02090D8F81000FDF7ABF8F862F86A0028D5
S1134CD001D104202FE0D8F80C00FDF7A1F8B86347
S1134CE0B86B002806D1F86AFCF7E0FF0020F862F0
S1134CF0042020E040F20941F86AFDF7FDF840F293
S1134D000A41B86BFDF7F8F84846FEF7B5F8F861C4
S1134D103A000FF2AD214846FEF7DEF8B8610122F1
S1134D2098F808104846C0B201F020FEB07850F060
S1134D304000B0705046BDE8F0870000F8B50400AC
S1134D400D00002D01D0002C02D14AF6031022E000
S1134D5068690600F078800602D54AF601101AE068
S1134D600020B070FF20F07060690700EA69A9694B
S1134D70286AFEF7B1F8A069FCF798FF0020A0614B
S1134D80E86AFCF793FF0020E862A86BFCF78EFF4B
S1134D900020A8630020F2BD2DE9F84304000D00B3
S1134DA01600A069070078698046FEF708F8386A9B
S1134DB001F027FEFEF714F800208146B14513D216
S1134DC0786B396B88420FD0F86A796B4A1C7A6326
S1134DD0085C28706D1C786B3969884201D3002007
S1134DE0786319F10109E9E797F8270050F0010009
S1134DF087F8270097F825008DF800009DF800003B
S1134E00002803D09DF80000012837D1032087F83B
S1134E10250097F82400002830D198F8020050F0BB
S1134E20100088F8020098F8030050F0020088F897
S1134E3003009DF80000012806D198F8020050F004
S1134E40040088F8020005E098F8020050F0200001
S1134E5088F8020097F8270050F0020087F827002E
S1134E6097F82600400050F0010088F80400F86C20
S1134E70401CF86498F803008007FBD598F80200FA
S1134E8080060FD497F8270080070BD598F8030005
S1134E90800607D4002087F827000020B862072086
S1134EA087F82500386A01F099FD4846BDE8F28389
S1134EB02DE9F04704000D001600A0690700786989
S1134EC08046FDF77CFF386A01F09BFDFDF788FF03
S1134ED000208146B14514D2F86B401C8246F86824
S1134EE0824501D300208246386C824509D0F86B94
S1134EF0B96B2A7842546D1CC7F83CA019F101091A
S1134F00E8E797F8270010F0FE0087F8270097F8E5
S1134F1025008246BAF1000F02D0BAF1010F34D154
S1134F20022087F8250097F8240000282DD198F84E
S1134F30020050F0100088F8020098F8030050F0C6
S1134F40020088F80300BAF1010F06D198F80200B4
S1134F5050F0040088F8020005E098F8020050F0D0
S1134F60200088F8020097F8270050F0020087F824
S1134F70270097F82600400088F80400F86C401CCD
S1134F80F86498F803008007FBD598F802008006BF
S1134F900FD497F8270080070BD598F803008006F4
S1134FA007D4002087F827000020B862072087F87C
S1134FB02500386A01F012FD4846BDE8F08700007C
S1134FC0F8B5040025006E69F0780700686C401C91
S1134FD06864B078800640F1C280B078C00665D5B8
S1134FE0F8070CD5F07850F00200F070E86B2864F4
S1134FF0072085F82500A86D401CA865ABE195F84D
S11350002500022821D1E86B296C884219D095F833
S1135010270010F00300022813D1F07850F00200AA
S1135020F070A86B296C4A1C2A64085C3071286CE7
S1135030E968884201D300202864E86C401CE864D5
S113504089E1286A01F0DDFC85E195F82500032853
S113505028D195F8270010F0030003281ED1B0785A
S113506010F0EF00B070A86A012804D1B07850F0B5
S11350700800B07003E0B07810F0F700B070F0787A
S113508050F00200F070A86A002803D1072085F8C8
S1135090250060E130798DF800005CE1286A01F0B8
S11350A0B0FC58E1286A01F0ACFC54E195F8250005
S11350B0032850D195F8270010F00300032846D1A7
S11350C0A86A002843D0286B401C8DF800009DF886
S11350D000002969884202D300208DF800009DF861
S11350E00000696B884203D1286A01F08AFC32E12E
S11350F0F07850F00200F070A86A401EA862A86A16
S1135100012804D1B07850F00800B07003E0B07802
S113511010F0F700B070A86A002803D1B07850F0FE
S11351201000B070286BE96A327942549DF800008F
S11351302863A86A002806D1B07810F0EF00B07098
S1135140072085F82500A86C401CA86403E1286AA0
S113515001F057FCFFE0286A01F053FCFBE0F8067D
S113516009D5F07850F01000F070062085F825007D
S1135170286D401C286578065DD595F82400002824
S113518002D1686D401C6865780728D5052085F82C
S1135190250095F8270010F0030002281BD1E86BC6
S11351A0296C884217D0B07850F01000B070F078B5
S11351B050F00200F070A86B296C4A1C2A64085C49
S11351C03071286CE968884201D300202864E86CB7
S11351D0401CE864BFE0286A01F013FCBBE0042033
S11351E085F8250095F8270010F0030003281ED148
S11351F0686B296B88421AD1A86A002817D0B07846
S113520010F0EF00B070F07850F00200F070A86A6F
S1135210012804D1B07850F00800B07003E0B078F1
S113522010F0F700B07030798DF8000093E0286A30
S113523001F0E7FB8FE0F80600F18A80B078C00641
S113524038D5F8070CD5F07850F00200F070E86B10
S11352502864072085F82500A86D401CA8657AE01D
S113526095F82500022803D095F8250005281DD1BE
S1135270E86B296C884219D095F8270010F00300D8
S1135280022813D1F07850F00200F070A86B296C5A
S11352904A1C2A64085C3071286CE968884201D38E
S11352A000202864E86C401CE86454E0286A01F09B
S11352B0A8FB50E095F82500032803D095F82500B5
S11352C0042841D195F8270010F0030003283BD1AE
S11352D0A86A002838D0286B401C8DF800009DF87F
S11352E000002969884202D300208DF800009DF84F
S11352F00000696B884203D1286A01F082FB2AE02E
S1135300F07850F00200F070A86A401EA862A86A03
S1135310012804D1B07850F00800B07003E0B078F0
S113532010F0F700B070A86A002802D1072085F8B1
S11353302500286BE96A327942549DF800002863FD
S1135340A86C401CA86406E0286A01F05AFB02E03D
S1135350286A01F056FB95F8270050F0020085F802
S11353602700F1BDFEB504000D002420FCF709FC64
S11353700600002802D14AF601602BE02422002115
S11353803000FCF76FFA2A003100200002F07DFAA9
S11353900700002818D12A003100200002F013FF72
S11353A00700002810D102960FF2D14001900FF2AD
S11353B0C54000900FF24D430FF265320FF2190110
S11353C0200003F0D5FB0700002F02D03000FCF7CB
S11353D06DFC3800FEBD00002DE9F54F83B00D00D3
S11353E003980068446A03980068806801900198F3
S11353F0411C01910078002801D06D1CF7E701954C
S11354000198007800284ED1049F002F02D14AF65B
S1135410036081E12068002824D11420FCF7E4FB18
S113542020602068002802D14AF6016074E1082057
S1135430FCF7DAFB60606068002805D16068FCF75F
S113544035FC4AF6016067E12068396801606068EC
S1135450002141602168039802F01BFA060000282D
S113546003D10DE04AF6046056E12068FCF71EFC07
S11354706068FCF71BFC002020600020606010E0E6
S11354806168039802F0A2FE0600002809D0206893
S1135490FCF70CFC6068FCF709FC0020206000208D
S11354A06060300038E1049F5FF0000B14F10800E5
S11354B0804614F110008146002F02D14AF60360A1
S11354C02AE12068002802D14AF6056024E17868C0
S11354D0002802D14AF606601EE100208346BBF193
S11354E0020F0DD2290014EB8B00806903F05EFBE0
S11354F0002802D14AF604600EE11BF1010BEEE72D
S113550000208346BBF1020F07D214EB8B008069A5
S1135510002802D01BF1010BF4E7BBF1020F02D10A
S11355204AF60760F8E01C20FCF75EFB0090009848
S1135530002803D14AF601600600ECE058F82B007D
S113554000283CD12020FCF74FFB48F82B0058F8EA
S11355502B00002803D14AF601600600D8E02C2075
S1135560FCF742FB49F82B0059F82B00002803D123
S11355704AF601600600C4E058F82B000099086060
S113558059F82B00009948600398009941607869A4
S1135590401C8000FCF728FB58F82B10C860786981
S11355A058F82B10C96811EB8000001D58F82B1017
S11355B0086158F82B00C068002807D102E05FF0AA
S11355C0FF30A9E04AF60160060093E058F82B008A
S11355D058F82B10C968416158F82B0058F82B1063
S11355E0C968816158F82B00C0F800B058F82B0046
S11355F07988818058F82B003988C18059F82B00AC
S1135600B969C16159F82B00B968816059F82B0058
S1135610F968C16059F82B00C0F800B059F82B00A4
S11356207988818059F82B007968491E816159F87D
S11356302B0059F82B108969416159F82B00F9693D
S11356400162386A002804D159F82B000121416213
S113565003E059F82B00396A416258F82B1003987B
S113566002F087FA060000283FD159F82B1003985E
S113567002F042FF0600002832D1280003F0B8FAF5
S1135680401CFCF7B1FA14EB8B018861002805D1AA
S113569059F82B10039802F0E2FF21E00020824623
S11356A01AF80500002809D014EB8B0080691AF859
S11356B005100AF800101AF1010AF1E714EB8B0047
S11356C0806900210AF80010B878800706D4002207
S11356D041F20111039800F0D1F81DE000201BE015
S11356E058F82B10039802F0D9FA58F82B00C06828
S11356F0FCF7DCFA59F82B00FCF7D8FA002049F83B
S11357002B0058F82B00FCF7D1FA002048F82B00A6
S11357100098FCF7CBFA300005B0BDE8F08F00002C
S11357202DE9F04704002068456A666815F108070A
S113573015F11008002E2BD100208146B9F1020F7B
S113574009DA57F82900002802D04AF6086056E022
S113575019F10109F2E76968200002F0CBFD8246E5
S1135760002801D050464AE02968200002F0F4F9EC
S11357708246002801D0504641E06868FCF796FA5A
S1135780002068602868FCF791FA0020286035E062
S113579030680068814600227168200003F009F92E
S11357A07168200002F05BFF8246002801D0504659
S11357B025E03168200002F071FA8246002801D009
S11357C050461CE015EB89008069FCF76FFA15EB75
S11357D08900002181613068C068FCF767FA30688D
S11357E0FCF764FA7068FCF761FA3000FCF75EFAC3
S11357F0002047F82900002048F829000020BDE8CF
S1135800F0870000F0B403000C005D682E68706936
S1135810002801D100202BE0B069D6F814C0B0EB09
S11358200C0080100700002F06D53069D6F80CC094
S1135830B0EB0C0017EBA0079008B84201D2900817
S11358400700002F13D0706900682060241D706960
S11358505FF0000CC0F800C07069001D7061D6F8DC
S113586010C0604501D3F06870617F1EE9E7601ADB
S1135870F0BC704703000020704700002DE9F0479A
S113588004000D0016006768B0462800093842D0AD
S113589041F2F801401A0ED0401E12D0401E16D01C
S11358A0401E1AD0401E1ED0401E22D0401E26D0BC
S11358B0401E2AD03AE000227968200002F045FF19
S11358C050E032000021200002F03FFF4AE00022B5
S11358D07968200003F06DF844E0320000212000D4
S11358E003F067F83EE000227968200002F0A2FF8E
S11358F038E032000021200002F09CFF32E0002258
S11359007968200002F0F6FF2CE03200002120002C
S113591002F0F0FF26E01520C8F800000020C8F8C7
S113592004000820C8F8080000201BE03200290009
S1135930200001F081FD8146B9F1000F03D040F64B
S1135940092081450DD132002900200002F038FBE6
S1135950824640F60920824501D1484602E050467D
S113596000E04846BDE8F0872DE9F24F0400150039
S11359705FF080095FF00F0A5FF0FF30804602207D
S11359800600B6F5807F15D801200700112F0FD22D
S113599007FB06F068430099401A8346BBF1000FE9
S11359A004D4C34502D2D846B146BA467F1CEDE7BB
S11359B07600E6E7E06A30F00800E062E06A6FF340
S11359C0131007005FEAC91010F47F403843BAF19E
S11359D00101090111F0F001084350F46020E06274
S11359E0606A000703D40520FDF71AFCF8E7E06AB3
S11359F050F00800E062206B50F480102063BDE892
S1135A00F18F406A40F20731084201D0012000E0E2
S1135A100020C0B270470200136B0B40180000282E
S1135A20FAD0704770B504000D00160000202860FD
S1135A3000213068C0B2FBF754FE10F1010F02D10F
S1135A4040F60B203DE0DFF85009E062E06AC00157
S1135A50FCD40020C4F8C0005FF4813060602820CA
S1135A60A062DFF838096064DFF83429B1682000E7
S1135A70FFF77AFF606A10F0030FFBD14FF6FF7156
S1135A803068C0B2FBF72DFE10F1010F02D140F6D1
S1135A900B2016E04FF6FF702063DFF808096063FF
S1135AA0E06A50F00060E062E06A0001FCD4606AE1
S1135AB0C00301D501202860206B50F080002063D2
S1135AC0002070BDF8B504000D0028680700C7F376
S1135AD08150022801D157F40017A868002820D06B
S1135AE0E86800281DD057F40017A868012801D0E1
S1135AF057F02007A86810F1010F08D1E868C00426
S1135B00C00C40F07F4050F47F0006000BE0E868D2
S1135B10C004C00CA96850EA0140060057F002070F
S1135B2001E000200600206B50F080002063606AD2
S1135B30C007FCD46868A060666000202060E7604D
S1135B40DFF864182000FFF766FF012807D0206BF8
S1135B5040F4702050F001002063012027E0206B06
S1135B60000605D5206B50F00110206301201EE0D3
S1135B70206BC00306D5206B50F0011020635FF04A
S1135B80FF3014E017F4403F0CD02069286117F46B
S1135B904030B0F5803F05D160696861A069A861B3
S1135BA0E069E861206B50F0010020630020F2BD41
S1135BB0F0B585B004000D00002C01D0002D01D1FA
S1135BC00C2030E0FDF7FBF80820FCF7BDF90600D7
S1135BD0002E03D1FDF704F9042024E040F2114122
S1135BE03000FCF789F903960FF2410002900FF29E
S1135BF09D1001900FF6651000900FF2C9730FF21B
S1135C000D120FF26101200003F00EF80700002FBF
S1135C1003D135600020706002E03000FCF746F8E4
S1135C20FDF7DEF8380005B0F0BD000038B504001B
S1135C30002C02D140F6012012E0606A0500002D1C
S1135C4002D140F60B200BE06868002802D040F631
S1135C500A2005E02800FCF729F8002060620020F3
S1135C6032BD00002DE9F84F04000D001600002C91
S1135C7001D10C2047E020680700002F02D140F634
S1135C80012040E0786A8146B9F1000F02D140F664
S1135C900B2038E0D9F800008246BAF1000F02D197
S1135CA040F60B202FE0DAF80000C0B203F03CF815
S1135CB08346BBF1000F02D140F60B2023E0FDF731
S1135CC07EF8D9F80400002803D0FDF789F82C20C9
S1135CD019E00120C9F80400FDF782F80420FCF75C
S1135CE033F98046B8F1000F01D104200BE040F2F3
S1135CF012414046FCF700F9C4F80480524641467C
S1135D005846FFF78FFEBDE8F28F00002DE9F04101
S1135D100400002C01D10C2036E020680500002D81
S1135D2002D140F601202FE0686A0600002E02D15D
S1135D3040F60B2028E030680700002F02D140F61F
S1135D400B2021E03868C0B202F0EEFF8046B8F1C3
S1135D50000F02D140F60B2016E0FDF730F8706812
S1135D60401E706000280CD1DFF82C06C8F82C0007
S1135D70D8F82C00C001FBD46068FBF797FF002023
S1135D806060FDF72DF80020BDE8F0812DE9F64FA5
S1135D908FB004005FF00009DDF840A0002C01D1B1
S1135DA00C20F6E220680E900E98002802D140F6EE
S1135DB00120EEE260680500002D02D140F60120CA
S1135DC0E7E20E98406A0D900D98002802D140F643
S1135DD00B20DEE20D9800680600002E02D140F68A
S1135DE00B20D6E23068C0B202F09EFF0700002FFD
S1135DF002D140F60B20CCE20F98C01E00F0B18215
S1135E00801F00F09A8241F2F821401A12D0401EFD
S1135E1000F0B781401E00F06B82401E00F0C38189
S1135E20401E00F0D781401E00F00982401E00F0A1
S1135E302982AAE2320029003800FFF7F3FD8146E7
S1135E40B9F1000F40F0A4820020099000200890CE
S1135E5000200B9000200C900020804600200A9027
S1135E6000200090002001900020029000A938003A
S1135E70FFF728FE002803D04AF60140814687E256
S1135E80DFF8280500904FF4D570019000200290AF
S1135E9000A93800FFF716FE8346BBF1010F03DBB0
S1135EA04AF60140814673E2BBF1000F09D1049820
S1135EB00199884203D04AF60140814668E20120F4
S1135EC08046DFF8EC04009000200190002002904E
S1135ED000A93800FFF7F6FD8346BBF1010F03DB91
S1135EE04AF60140814653E2BBF1000F36D10498D3
S1135EF0C0F30270002833D0049810F4401F2FD050
S1135F00DFF8AC0400905FF4401001900020029090
S1135F10002083460520FDF783F91BF1010B00A93E
S1135F203800FFF7CFFD002803D04AF60140814630
S1135F3005E00498002802D4BBF1C80FEADBB9F1EC
S1135F40000F40F025820498002801D50120089014
S1135F500498000104D501200A9001E001200A9070
S1135F600A98002800F0CA80DFF848040090002056
S1135F7001900020029000A93800FFF7A3FD83469A
S1135F80BBF1010F03DB4AF60140814600E2BBF19D
S1135F90000F54D50020089000200990002080466E
S1135FA05FF080700090DFF81004019000200290F0
S1135FB000A93800FFF786FD002803D04AF6014007
S1135FC08146E5E1049810F0C040B0F1005F01D1D2
S1135FD00120804601200B90DFF8E00300904FF48D
S1135FE0406001900020029000A93800FFF76AFD8C
S1135FF0002803D04AF601408146C9E10498C0F361
S11360000720CE287AD1DFF8B40300904FF4506013
S113601001900020029000A93800FFF753FD0028EA
S113602003D04AF601408146B2E10498C0F3072048
S1136030AA2863D100200B9001200C905EE0DFF8C9
S113604080030090002001900020029000A93800F5
S1136050FFF738FD002803D04AF60140814697E156
S1136060049810F4401F49D0002083460520FDF712
