S0030000FC
S3510000000000FC0020F19500009D0500009D0500009D0500009D0500009D05000000000000000000000000000000000000610400009D050000000000000B0500009D0500009D0500009D0500009D05000043
S3510000004C9D0500009D0500009D0500009D0500009D0500009D0500009D0500009D0500009D0500009D0500009D0500009D0500009D0500009D0500009D0500009D0500009D0500009D0500009D0500005C
S351000000989D0500009D0500009D0500009D0500009D0500009D0500009D0500009D0500009D0500009D0500009D0500009D0500009D0500009D0500009D0500009D0500009D0500009D0500009D05000010
S351000000E49D0500009D0500009D0500009D0500009D0500009D0500009D0500009D0500009D0500009D0500009D0500009D0500009D0500009D0500009D0500009D0500009D0500009D0500009D050000C4
S351000001309D0500009D0500009D0500009D0500009D0500009D0500009D0500009D0500009D0500009D0500009D0500009D0500009D0500009D0500009D0500009D0500009D0500009D0500009D05000077
S3510000017C9D0500009D0500009D0500009D0500009D0500009D0500009D0500009D0500009D0500009D0500009D0500009D0500009D0500009D0500009D0500009D0500009D0500009D0500009D0500002B
S351000001C89D0500009D0500009D0500009D0500009D0500009D0500009D0500009D0500009D0500009D0500009D0500009D0500009D0500009D0500009D0500009D0500009D0500009D0500009D050000DF
S351000002149D0500009D0500009D0500009D0500009D0500009D0500009D0500009D0500009D0500009D0500009D0500009D0500009D0500009D0500009D0500009D0500009D0500009D0500009D05000092
S351000002609D0500009D0500009D0500009D0500009D0500009D0500009D0500009D0500009D0500009D0500009D0500009D0500009D0500009D0500009D0500009D0500009D0500009D0500009D05000046
S351000002AC9D0500009D0500009D0500009D0500009D0500009D0500009D0500009D0500009D0500009D0500009D0500009D0500009D0500009D0500009D0500009D0500009D0500009D0500009D050000FA
S351000002F89D0500009D0500009D0500009D0500009D0500009D0500009D0500009D0500009D0500009D0500009D0500009D0500009D0500009D0500009D0500009D0500009D0500009D0500009D050000AE
S351000003449D0500009D0500009D0500009D0500009D0500009D0500009D0500009D0500009D0500009D0500009D0500009D0500009D0500009D0500009D0500009D0500009D0500009D0500009D05000061
S351000003909D0500009D0500009D0500009D0500009D0500009D0500009D0500009D0500009D0500009D0500009D0500009D0500009D0500009D0500009D0500009D0500009D0500009D0500009D05000015
S329000003DC9D0500009D0500009D0500009D0500009D0500009D0500009D0500009D0500009D05000045
S31500000400FFFFFFFFFFFFFFFFFFFFFFFFFEFFFFFFF7
S3510000042001DF704701DFFFF7FEBFDFF8E802D0F8000072B6B0F8181051B9D0F82410D0F81C20D2F81C30994200F0028062B603DF62B6704703DF7047FFF7FEBF02DF704772B61EF0040F0CBFEFF3088146
S3510000046CEFF30981D1F8181011F8021C032940F008804DF804ED00F02CF85DF804EB00F026B8012940F00680DFF87C02D0F8000000F048B8022940F01A80DFF86C02D0F80000D0F81C10D1F8082042F074
S351000004B80102C1F808204DF804EDD1F80420D1F80030C2F80030C3F8042000F004F85DF804EB62B670472DE90740DFF83402D0F8041011F0805F40F00A80EFF31182A2F1100280F82220DFF81C12C0F8B9
S351000005040410BDE8078072B6EFF3098CDFF80C1291F80220EFF311832CE9FC4FDFF8F001D0F80000D0F81C30C3F814C072B6D0F82410D1F800208A4240F01680D1F808105FEA01017FF4F5AF81F311882E
S35100000550DFF8CC11DFF8CC2181F8022062B6AFF3038072B6D0F82010FFF7E5BFC0F82410C0F81C20B2F82430A0F81A30D2F814C0BCE8FC4F83F311888CF30988DFF88801DFF89411C0F8041062B670476C
S3510000059C72B64DF804EDDFF87031D3F80030B3F8181001F10101A3F81810DFF874014DF8040DEFF31182EFF30581D3F834002DE90700EFF30880C3F834004FEA0100D3F830200AB900F04BB8904200F2EF
S351000005E84880D3F82C20811AC0F24380D3F838204FEAD1014FEA810152F8011009B900F038B8D1F8002042B1824200F00880D1F8101011EA010F7FF4F4AF00F02AB8D1F80C00D1F8042062B64DF8043D98
S3510000063490475DF8043B72B6BDE80700C3F834005DF8040BB3F81810491EA3F81810D3F81C20D2F8280010F4805F40F0098039B9D3F82410D1F80010914218BFFFF735FF62B65DF804FBD3F82820FFF73D
S35100000680D6BF72B62DE9F100DFF88830D3F80030D3F834C00CF1100C5CF804EBDFF8900020F00100CCF818009CE8FF005DF804CBACF1040C2CE9FF00BDE8F0008CF3088862B6704770474FF08002D0E860
S351000006CC4F1F00290CBFC0E8432F40F00380002B7FF4F5AF4FEA01007047EFF309807047EFF30880704780F308887047EFF30380704762B6704772B670477046704778467047EFF3148070473C02FF1F48
S3510000071800ED00E00000001020ED00E0FF00000000000008000000003706000078B585B00421DFF8700101600221DFF86C0101600621DFF8680101600421DFF8640101600221DFF8600101600621DFF845
S351000007645C0101600EF0B2F90446002C06D0DFF85001214608F062FFFFF76EFE40F2FE10CCF2A80002906FF0FF00039000200490002040F2FE11CCF2A80100AA03F0D6FD002000A90EF0ECFC0446002018
S351000007B002A90EF0B7FC044600200EF07DFB05461CF050F918F000FB00F08EF8DFF8F800072140F6C412DFF8F43017F0ADFF0446002C06D0DFF8E800214608F029FFFFF735FEDFF8E00008F023FFDFF88E
S351000007FCDC000FF061FF00280CD0284610F0C6FC284611F0A1FD284611F030F910F01AFA0FF074FF40F2D116CCF2A80630460EF07BFD0446002C04D0DFF8A400214608F001FFDFF8A0000FF03FFF0028A0
S351000008480CD0284610F0A4FC284611F07FFD284611F00EF910F0F8F90FF052FF30460EF071FD0446002C04D0DFF87000214608F0E3FEDFF864000FF021FF002809D0284613F0AAFA284614F0D7F812F06C
S3510000089439FE12F0CBF9002000F04CF8FFF7DCFD05B0BDE878407047EC02FF1F3407FF1FE802FF1FC802FF1F1407FF1FC402FF1F5F00FF1F8600FF1F1000FF1F8B00FF1FB800FF1FD100FF1FD900FF1F03
S351000008E00001FF1F0701FF1F08B5DFF80C0018F0B9FBBDE8084070473801FF1FDFF8040000687047A006FF1FDFF80400006870473401FF1F0FB410B50398049918F05EFA0446DFF8100004600020BDE8A5
S3510000092C104004B07047C0463401FF1F10B5DFF8620008F07FFEDFF85E00DFF85E10096808F078FE41F2883009F062FFDFF84A000068411CDFF842000160DFF83E000168DFF83A0000688142E5D9DFF8A5
S35100000978360014F08BFEDFF832000321DFF82E2015F024FEDFF82A0008F056FE0024DFF80E000460D1E76001FF1FC701FF1FA006FF1F3401FF1F60480200B04802003801FF1FCC01FF1F000008B508F068
S351000009C479FABDE8084070470FB408B50298039908F076FABDE8084004B0704710B50446022C04D2A100DFF80E00405800E00020BDE810407047E84902000000F0B583B006460F4624200CF0A1FF0446A1
S35100000A10002C02D14AF601602BE020460021242223F09CFA304621463A4601F06FFC0546002D18D1304621463A4600F073FC0546002D10D1DFF832000090DFF83200019002943046DFF82A10DFF82A20D3
S35100000A5CDFF82A3009F080FE0546002D02D020460DF016F8284603B0BDE8F0407047790F00007D0F0000910A0000110E0000FD0E000000000FB42DE9F04784B08246DAF80000456ADAF800008068039085
S35100000AA802E00D98401C0D9003990398401C039008780028F5D10D98039003980078002852D10E9802900298002802D14AF6036094E12868002816D114200CF073FF28602868002802D14AF6016087E110
S35100000AF408200CF069FF68606868002808D168680CF0CAFF4AF601607AE14AF6046077E102980168286801600021686841605046296801F0FBFB8146B9F1000F0AD028680CF0B2FF68680CF0AFFF002039
S35100000B4028600020686011E05046696800F0ECFB8146B9F1000F09D028680CF09FFF68680CF09CFF0020286000206860484649E10E988046002405F1080605F11007B8F1000F02D14AF603603CE1286816
S35100000B8C002802D14AF6056036E1D8F80400012802D24AF606602FE100240BE0A000281880690D9923F034FA002802D14AF6046022E1641C022CF1D3002400E0641C022C04D2A000281880690028F7D1C5
S35100000BD8022C02D14AF6076010E11C200CF0F2FE01900198002803D14AF60160814603E1A000305800281BD120200CF0E3FE0146A0003150A0003058002803D14AF601608146EEE02C200CF0D5FE01461B
S35100000C24A0003950A0003858002806D14AF601608146D9E04FF0FF30E2E0A000305801990860A0003858019948600198CAF80400D8F81400401C80000CF0B6FE0146A0003058C160A0003058C168D8F8B9
S35100000C701400401C80000918A00030580161A0003058C068002803D14AF601608146A6E0A0003058C168A00030584161A0003058C168A00030588161A00030580460B8F80210A00030588180B8F80010B0
S35100000CBCA0003058C180D8F81810A0003858C161D8F80810A00038588160D8F80C10A0003858C160A00038580460B8F80210A00038588180D8F80400411EA00038588161A00038588169A0003858416145
S35100000D08D8F81C10A00038580162D8F82000002804D10121A0003858416204E0D8F82010A000385841625046A100715801F076FC8146B9F1000F49D15046A100795800F0B5FC8146B9F1000F3BD10D989A
S35100000D5423F058F9401C0CF037FE0146A00028188161A00028188069002827D0002000900AE00D9900980A5CA0002818816900980A540098401C00900D990098085C0028EFD10020A10069188A69009991
S35100000DA05054B8F8020000F00200002806D1504641F20111002200F0E1F823E0002021E05046A100795800F039FD5046A100715801F0D6FCA0003058C0680CF05FFEA00038580CF05BFE0021A000395067
S35100000DECA00030580CF054FE0021A000315001980CF04EFE4846FFE704B0BDE8F04704B0704700002DE9F0478046D8F80000446AD8F8045004F10800814604F110008246002D29D1002708E0B80059F828
S35100000E380000002802D04AF6086057E07F1C022FF4DB4046616800F00FFB0646002E01D030464BE04046216801F0D0FB0646002E01D0304642E060680CF014FE0020606020680CF00FFE0020206036E014
S35100000E842868076840466968002200F0D3FE4046696800F0D1FC0646002E01D0304627E04046296801F06AFC0646002E01D030461EE0B800201880690CF0EEFD0021B800201881612868C0680CF0E6FD90
S35100000ED028680CF0E3FD68680CF0E0FD28460CF0DDFD0021B80049F800100021B8004AF800100020BDE8F047704700002DE9F0478246894690464E46DAF804703C686069002801D100202CE0A169606975
S35100000F1C091A481001EB90708510002D07DA2169E068091A481001EB907080102D184FEA9800854213D94FEA980510E0606900683060361D0021606901606069001D606161692069814201D3E068606128
S35100000F686D1E002DECD1A6EB0900BDE8F0477047002070472DE9F04704468A46174665683E46BAF1090F03D8BAF1090F4AD051E041F20110AAEB000007284BD84FEA80008744F0BF00F00EB800F012B82F
S35100000FB400F016B800F01AB800F01EB800F022B800F026B800F02AB820466968002200F0BBFC4DE0204600213A4600F0B5FC47E020466968002200F025FE41E0204600213A4600F01FFE3BE0204669684C
S35100001000002200F027FD35E0204600213A4600F021FD2FE020466968002200F093FD29E0204600213A4600F08DFD23E015203060002070600820B06000201BE0204651463A4600F00FFF8046B8F1000FC8
S3510000104C03D040F6092080450DD1204651463A4600F00EF8814640F60920814501D1404602E0484600E04046BDE8F047704700000FB42DE9F04782461446DAF80000456ADAF804600027002E00D0F768F0
S35100001098099841F21111401A0E2800F231814FEA80008744F0BF00F01CB800F045B800F050B800F025B900F023B900F021B900F04CB800F0A2B800F01BB900F019B900F017B900F015B900F013B900F0AE
S351000010E4CEB800F0FDB8DFF82E0200688146B9F1000F02D14AF60B6008E14FF0000C46F20400C4F2030003680022A4FB030104FB02110CFB03114A46002323F059F980464FF6FF70804502D94AF60660C4
S35100001130EEE046F20C00C4F20300C0F80080E6E04FF6FF70844202D94AF60660E0E046F20C00C4F203000460D9E0DFF8BE014460D5E0DFF8B60100688146B9F1000F03D1204600F087F9CBE0A4464FF0EC
S3510000117C000E46F20400C4F2030001680020ACFB01320CFB00220EFB0122B3FBF9F0401E80464FF6FF70804502D94AF60660B1E0C8F30F0146F20400C4F2030001602869002804D02869806A80690028E6
S351000011C81AD046F20400C4F2030001684FF6FF70814202D14FF6FF7205E046F20400C4F203000068421C282007FB00F146F21800C4F203000818026046F20001C4F20301086840F0010008607DE04FF689
S35100001214FF70844202D94AF6066077E046F20400C4F2030004602869002804D02869806A806900281AD046F20400C4F2030001684FF6FF70814202D14FF6FF7205E046F20400C4F203000068421C2820D9
S3510000126007FB00F146F21800C4F203000818026046F20001C4F20301086840F00100086045E0002E02D14AF60A6041E04FF6FF70844202D94AF603603AE0282007FB00F1B0688000091846F21800C4F2C5
S351000012AC030008180460B06800280CD1282007FB00F146F21800C4F2030008180268B900DFF84E00425046F20001C4F20301086840F00100086014E046F20000C4F2030001686FF470600140200200F43A
S351000012F87060014346F20000C4F20300016002E040F6092000E00020BDE8F04704B07047C046A406FF1FC006FF1F000000207047F8B5074647F20005C4F204053868446A206A067841F23C0028180068C9
S3510000134440F4800141F23C002818016046F20001C4F20301086840F080000860DFF80201006900F00100002823D1206A006A00680CF01EFEDFF8EA10C860206A006A0068DFF8E2103A460CF047FEDFF89D
S35100001390D6108860206A006A0068216A096A4968012208F04DF8DFF8BE00006940F00101DFF8B200016146F20002C4F2030211686FF040000840106046F20002C4F2030211686FF440200840106046F2D1
S351000013DC0000C4F2030000680022282006FB00F146F21000C4F2030008180270282006FB00F146F21000C4F203000918086840F47F400860282006FB00F146F21000C4F203000A1811686FF47F00084088
S351000014281060002E0BD141F21800281801686FF08000014041F21800281801600AE041F21800281801686FF40040014041F21800281801600020BDE8F8407047C046A406FF1F011E000000004FF0FF313A
S35100001474DFF80800017000207047C0460602FF1F30B585B00546002001900024DFF8180290F90000B0F1FF3F58D14AF6AA20C0F2020000900720049007E00498401E049000980290009840080090049863
S351000014C0B0F1FF3F02D000988542F0D30498401C04904AF6AA20C0F26A0000900920039007E00398401E0390009801900098400800900398B0F1FF3F02D000988542F0D30398401C03900498082805D163
S3510000150C03980A2802D14AF60660C4E002990198814207D20498082804D0029801900498039009E00398072805D90398801FC4B20720039000E00124039841B2DFF86001017056E046F20000C4F203007B
S35100001558006800F00C00082809D8082800D327E0042842D8002805D0042812D03DE00C282DD03AE04AF6AA21C0F20201DFF8240190F90000C0F1070021FA00F0019000242BE04AF6AA21C0F26A01DFF842
S351000015A4080190F90000C0F1090021FA00F0019001241CE04AF6AA21C0F26A01DFF8E80090F90000C0F1080021FA00F0019002240DE04AF6AA21C0F26A01DFF8CC0090F90000C0F1070021FA00F001906C
S351000015F003240198854202D94AF6066051E00020010441EA15412804019A002322F0E2FE029002994FF6FF70814202D94AF606603FE00298411E46F20400C4F20300016046F20002C4F2030211686FF08E
S3510000163C0C000840106046F20002C4F203021168A00000F00C000843106046F20001C4F20301086840F001000860DFF84800056046F20002C4F2030211686FF4E0400840106046F20002C4F2030211683C
S35100001688039800030843106046F20001C4F20301086840F023000860002005B0BDE830407047C0460602FF1FA406FF1F0FB42DE9F0470C4608984568EE68E06900F48030B0F5803F02D04AF60C60A9E0A7
S351000016D4DFF858010068002816D0E168DFF84C010068B1FBF0F08246E068DFF8401109680AFB01F1884202D04AF6066092E0C5F810A0002068610CE00120286100206861E068FFF7B5FE8146B9F1000F23
S3510000172001D0484680E046F20001C4F20301086840F470600860AF68DFF8F4000068804646F20001C4F20301086840F001000860002F35D1A3684FEAE37C46F20400C4F2030002680020A3FB02E103FB07
S3510000176C00110CFB021170464246002322F02CFEB200DFF8B410885046F20400C4F2030001684FF6FF70814202D14FF6FF7005E046F20400C4F203000068401C282106FB01F246F21801C4F20301511893
S351000017B808600120A8611EE0A3684FEAE37C46F20400C4F2030002680020A3FB02E103FB00110CFB021170464246002322F0F6FD282106FB01F2B900521846F21801C4F203015118086046F20001C4F2F2
S351000018040301086840F001000860DFF82810B000081802680121B94011430160A0696061A5620020BDE8F04704B07047A406FF1FC006FF1FB806FF1F2DE9F0418046D8F80450EC68AE68002E2CD146F2AE
S351000018500400C4F2030001684FF6FF7081420BD14FF6FF72282004FB00F146F21800C4F20300081802600EE046F20400C4F203000068421C282004FB00F146F21800C4F203000818026046F20001C4F2F9
S3510000189C0301086840F0010008600EE0282004FB00F146F21000C4F203000A1811780120B040C043C0B208401070DFF87610A0000A1811680120B040C04308401060A100DFF85E004058002809D10022D7
S351000018E8282004FB00F146F21000C4F2030008180270002706E0A100DFF83A004058002814D17F1C022FF6D346F20002C4F2030211686FF08000084010600021DFF81A0001604FF0FF31DFF816000170A5
S351000019340020BDE8F0417047C046B806FF1FA406FF1F0602FF1F00000FB4F0B407467D683868466A306A047806996FF480300840002802D04AF60C606AE0002D31D1A100DFF8D400405840F00100C2B243
S35100001980282004FB00F146F21000C4F2030008180270A100DFF8B400405800F00100002845D0A100DFF8A8004258282004FB00F146F21800C4F203000818026046F20001C4F20301086840F001000860DF
S351000019CC0021B068C06981612BE0A868002816D1A100DFF870004258282004FB00F146F21800C4F203000818026046F20001C4F20301086840F0010008600020A861282004FB00F146F21000C4F20300B8
S35100001A180B181A780121A86801FA00F040F00100C0B21043187046F20002C4F2030211688020C0F20100084310600020F0BC04B07047C046B806FF1FC006FF1F0FB4F0B407467C683868466A306A0578B4
S35100001A6406996FF480300840002802D04AF60C6061E0002C0DD1282005FB00F146F21000C4F203000A1811686FF0FF000840106050E0A068002812DD282005FB00F146F21000C4F203000B181A6801210A
S35100001AB0A06801FA00F000F0FF00C043104018603AE0282005FB00F146F21800C4F2030008180268A900DFF86800425046F20400C4F2030001684FF6FF7081420BD14FF6FF72282005FB00F146F21800E7
S35100001AFCC4F20300081802600EE046F20400C4F203000068421C282005FB00F146F21800C4F203000818026046F20001C4F20301086840F0010008600120A0610020F0BC04B07047C006FF1F0FB4F0B450
S35100001B4807467D683868466A306A047806996FF480300840002802D04AF60C605FE0002D31D1A100DFF8BE00405840F00100C2B2282004FB00F146F21000C4F2030008180270A100DFF89E00405800F0C9
S35100001B940100002844D0A100DFF892004258282004FB00F146F21800C4F203000818026046F20001C4F20301086840F0010008600021B068C06981612AE0A868002810DD282004FB00F146F21000C4F2B6
S35100001BE003000B181A780121A86801FA00F0C0B21043187016E0A100DFF836004258282004FB00F146F21800C4F203000818026046F20001C4F20301086840F0010008600020A8610020F0BC04B0704734
S35100001C2CC046B806FF1FC006FF1F00000FB4F0B407467C683868466A306A057806996FF480300840002802D04AF60C605CE0002C0AD10022282005FB00F146F21000C4F20300081802704EE0A068002872
S35100001C7810DD282005FB00F146F21000C4F203000B181A780121A06801FA00F0C0B2104318703AE0282005FB00F146F21800C4F2030008180268A900DFF86800425046F20400C4F2030001684FF6FF706A
S35100001CC481420BD14FF6FF72282005FB00F146F21800C4F20300081802600EE046F20400C4F203000068421C282005FB00F146F21800C4F203000818026046F20001C4F20301086840F00100086001202B
S35100001D10A0610020F0BC04B07047C046C006FF1F70B505466C68EE686069002803D06069401E60615DE0A08800F0040000284FD0A868002811DD282006FB00F146F21000C4F203000B181A780121A86831
S35100001D5C01FA00F0C043C0B2104018703AE0282006FB00F146F21800C4F2030008180268B100DFF87A00425046F20400C4F2030001684FF6FF7081420BD14FF6FF72282006FB00F146F21800C4F20300D8
S35100001DA8081802600EE046F20400C4F203000068421C282006FB00F146F21800C4F203000818026046F20001C4F20301086840F0010008600120A861206A002803D0206A616A0BF0C3FFA0696061002052
S35100001DF4BDE870407047C006FF1F000010B500240AE00F22282004FB00F146F21400C4F2030008180260641C022CF2D3DFF836000068002801D000F049FDDFF82E004068002803D0DFF8220040688047C3
S35100001E4046F20002C4F2030211686FF0400008401060BDE810407047C046DC06FF1FA406FF1F00000FB42DE9F84785B017460E980068406A82460E984568DAF8200006780F9941F20910081A1B2800F2D9
S35100001E8C32824FEA80008744F0BF00F036B800F04AB800F052B800F05AB800F087B800F094B800F0A0B800F0ADB800F01CBA00F01ABA00F018BA00F016BA00F0D8B800F005B900F010BA00F00EBA00F0AD
S35100001ED82EB900F046B900F05EB900F006BA00F004BA00F002BA00F000BA00F06EB900F08FB900F0ACB900F0C9B900F0DEB9002D02D04AF60960F4E1DFF8F0030168700021FA00F000F00300002802D072
S35100001F244AF60860E7E1304600F0F8FCE3E1002D02D04AF60960DEE13046394600F0B4FDD9E1002D02D04AF60960D4E13046394600F060FDCFE1002D02D04AF60960CAE13046FEF73BFD0446E1686FF0EF
S35100001F7003000840E060142F01D1E06817E00C2F04D1E06840F00100E06010E0062F04D1E06840F00200E06009E0022F04D1E06840F00300E06002E04AF60660A5E1A06840F01000A0609FE1002D02D044
S35100001FBC4AF609609BE13046FEF70CFD0446A1686FF010000840A06090E1002D02D04AF609608CE13046FEF7FDFC0446E06840F00400E06082E1002D02D04AF609607EE13046FEF7EFFC0446E1686FF08E
S3510000200804000840E06073E1002D02D04AF609606FE13046FEF7E0FC0446002F05D1616A6FF004000840606262E1616A6FF0030008406062202F04D1606A40F00F00606256E1102F04D1606A40F00E0024
S3510000205460624FE1082F04D1606A40F00D00606248E1042F04D1606A40F00C00606241E14AF606603FE1002D02D14AF60A603AE10BF026FF3046FEF7A9FC0446A86880002018804603E03046A96800F06B
S351000020A0AFFBD8F8000000F080000028F5D1424611686FF0400008401060DFF84C0201680120AB6872009A1890400143DFF8380201600BF015FF0FE1002D02D14AF60A600BE10BF0F7FE3046FEF77AFCEC
S351000020EC0446A86880002018804603E03046A96800F080FBD8F8000000F080000028F5D14146086840F040000860DFF8F00101680120AB6872009A189040C0430140DFF8DC0101600BF0E6FEE0E004970C
S35100002138049881B200A88180002D02D04AF60960D7E004994FF6FF70814202D94AF60660CFE03046FEF740FC044600A88088A062C6E00397039881B200A84180002D02D04AF60960BDE003994FF6FF708B
S35100002184814202D94AF60660B5E03046FEF726FC044600A84088E062ACE00297029881B200A80180002D02D04AF60960A3E002994FF6FF70814202D94AF606609BE03046FEF70CFC044600A800882063E3
S351000021D092E0002D02D04AF609608EE03046FEF7FFFB0446216A6FF0030008402062002F01D1206A80E0012F04D1206A40F00100206279E0022F04D1206A40F00200206272E04AF6066070E0002D02D1BD
S3510000221C4AF60A606BE03046FEF7DCFB04462868C08800F01F00022802D04AF60D605EE0216D6FF4702008402065216D47F4801040F400000843206550E0B946B9F1000F02D14AF603604AE0002D02D1EE
S351000022684AF60A6045E03046FEF7B6FB04462868C08800F01F00022802D04AF60D6038E0206D00F47020C9F8000031E0002D02D14AF60A602DE03046FEF79EFB04462868C08800F01F00022802D04AF63C
S351000022B40D6020E0206D40F4001020651AE0002D02D14AF60A6016E03046FEF787FB04462868C08800F01F00022802D04AF60D6009E0216D6FF400100840206502E040F6092000E0002005B0BDE8F84723
S3510000230004B07047C806FF1FDC06FF1F0FB418B40C4604982062002018BC04B0704700002DE9F04782468846DAF80000446A206A007881464846FEF753FB0546002D02D14FF0FF3056E10027D8F80000F2
S3510000234C082809D8082800D309E004280AD8002805D0042803D005E00C2806D002E047F0010702E04AF606603EE1206AC068002801D147F00207206A0069002801D147F00407B800DFF866120E5848466B
S3510000239805F072FD206A4068042800F204814FEA80008744F0BF00F06AB800F0ABB800F004B800F0D6B800F0E5B8206A8068B0F1FF3F2FD146F60040C0F2DC20864202D30020A860EAE043F20060C0F21A
S351000023E46E10864202D32020A860E1E041F60030C0F2B700864202D34020A860D8E048F68050C0F25B00864202D36020A860CFE04CF2C060C0F22D00864202D36120A860C6E04AF60660E3E046F6004118
S35100002430C0F2DC210122206A806802FA00F0B1FBF0F0B04206D8206A8068400100F06000A860AFE043F20061C0F26E110122206A806802FA00F0B1FBF0F0B04208D8206A8068400100F0600040F001005A
S3510000247CA86099E04AF60660B6E0206A8068B0F1FF3F26D146F60040C0F2DC20864202D30020A86088E043F20060C0F26E10864202D32020A8607FE041F60030C0F2B700864202D34020A86076E048F640
S351000024C88050C0F25B00864202D36020A8606DE04AF606608AE046F60041C0F2DC210122206A806802FA00F0B1FBF0F0B04206D8206A8068400100F06000A86056E04AF6066073E0206A8068B0F1FF3FCF
S3510000251410D14CF2C060C0F22D00864201D36120A8604CF2C060C0F22D00864240D34AF606605DE043F20061C0F26E110122206A806802FA00F0B1FBF0F0B04208D8206A8068400100F0600040F001005D
S35100002560A86027E04AF6066044E0206A8068B0F1FF3F02D14AF606603CE0206A8068400100F0600040F00200A86013E0206A8068B0F1FF3F02D14AF606602BE0206A8068400100F0600040F00300A86027
S351000025AC02E04AF606601FE0A968D8F800000843A860286A40F040002862206A80690BF0F3FCC8F80C00206A8069DFF8261052460BF01EFDC8F80800206A8069216AC969012206F027FF0020BDE8F0470C
S351000025F87047F0490200F9280000000070B506460D463068446A206A8069A968EA680BF001FD0020BDE87040704700000FB42DE9F04782B00C460A980068456A0A9840688046286A007881464846FEF7C8
S35100002644CDF90746DFF82C0100684FEA4901C8400190C4F81C80E08800F01F008246E08800F40060002802D04AF0200082464AF040008246002606E001990120B0400840002802D0761C022EF6DB022E3C
S3510000269002D14AF6076069E0B00047F800A0C8F80C90C8F80860DFF8D000016801224FEA4900301802FA00F00843DFF8BC100860F000DFF8B8104FEA8902081842F80080E08800F47040001300280AD095
S351000026DC09F10100E18801F470410913884202D04FF0FF303CE02868007C002807D0E08800F4C0602968097C490288422DD1E08805F0E0FB00900098002824D12868007C002806D1E08800F4C06040125A
S35100002728C1B2286801742868007C012805D1F9686FF010000840F86007E02868007C022803D1F86840F01000F860E08800F01F00022802D14FF410003865009802E04FF0FF30FFE702B0BDE8F04704B00F
S351000027747047C046C806FF1FCC06FF1F2DE9F0418046D8F80440E568A6682846FEF726F907460BF09DFB1F21B0003950DFF85000026801216800301801FA00F0C04302EA0001DFF83C0001600BF0A0FBDB
S351000027C0DFF83400026801216800301801FA00F0C04302EA0001DFF8200001600023F200DFF81800A90080180B500020BDE8F0417047C046DC06FF1FC806FF1FCC06FF1F2DE9F84381460F464846FEF72E
S3510000280CE9F80646B800305800F0800000284BD0FA00DFF89C004FEA890180180D582C686869002807D0B8003018006900906869401E686138E02869401E6861A08800F01000002807D0A1690868BA00AD
S35100002858B21812698018086004E0B80030180169A069016068688046A08800F01000002803D0D8F81400002815D1A069001DA061A1692069814201D3E068A061A1696069814208D16069001D606161690C
S351000028A42069814201D3E06860612846FFF736FABDE8F8437047C046CC06FF1F38B5002411E000250CE0EA00DFF82400A10080180858002803D020462946FFF78FFF6D1C022DF0DB641C022CEBDBBDE817
S351000028F038407047CC06FF1F0FB4F8B5069D2868466A306A0778002404E038462146FFF777FF641C022CF8DBBDE8F84004B070470FB438B50498FEF75BF80446002C02D14AF606606BE0206AC1B200A876
S3510000293C0170606AC1B200A84170216A6FF0400008402062606A40F080006062206A00F080000028FAD1606A00F04000002806D0606A40F0400060624FF0FF3049E00025E06C80B22D18ADB2A06C80B215
S351000029882D18ADB2606C80B22D18ADB2206C80B22D18ADB2E06B80B22D18ADB2A06B80B22D18ADB205EBD570401085B205F50045ADB2E56200250025E06E80B22D18ADB2A06E80B22D18ADB2606E80B260
S351000029D42D18ADB2206E80B22D18ADB2E06D80B22D18ADB2A06D80B22D18ADB205EBD570401085B205F50045ADB2256300A84078606200A8007820620020BDE8384004B0704700000FB438B50D460498B6
S35100002A20FDF7DEFF0446002D02D14AF6036038E0002C02D14AF6066033E0A06A80B22880E06A80B26880206B80B2A880606BC0B2A871A06BC0B2E871E06B80B22881206C80B26881606CC0B22873A06CCB
S35100002A6CC0B26873E06CC0B2A873606DC0B2E873A06DC0B22874E06D80B26882206E80B2A882606EC0B2A875A06EC0B2E875E06EC0B228760020BDE8384004B0704700000FB438B50D460498FDF794FF84
S35100002AB80446002D02D14AF6036027E0002C02D14AF6066022E02888A0626888E062A8882063A8796063E879A0632889E06368892064287B6064687BA064A87BE064E87B6065287CA065688AE065A88AFA
S35100002B042066A87D6066E87DA066287EE0660020BDE8384004B070470FB4F8B506460F46B0680068007A089900F0BEF80446B56920460BF007FAB9006918C1F8900020460BF036FAB9006918C1F8A40048
S35100002B502046099932460BF061FA002801D1002005E020460A99012206F06AFC0120BDE8F84004B07047000070B582B006460C46E068009020690190304600210122DFF86830FFF7C3FF0546002D0BD052
S35100002B9CE068009020690190304601210022DFF84C30FFF7B5FF0546002D0BD060680090A0680190304602210522DFF83430FFF7A7FF0546002D0BD060680090A0680190304603210422DFF81830FFF74A
S35100002BE899FF0546284602B0BDE870407047C04651300000DD35000038B50546002408E0A8680068007A214600F04CF806F06AFC641C102CF4D3BDE8384070470FB4F8B507460E46B8680068007A0899BB
S35100002C3400F03AF80546BC69284606F055FCB0002018D0F8900000280FD02846B1006118D1F89010B200A218D2F8A4200BF0DCF90021B0002018C0F89010BDE8F84004B07047000010B5044620460021B6
S35100002C800122FFF7CFFF204601210022FFF7CAFF204602210522FFF7C5FF204603210422FFF7C0FFBDE810407047000070B506460D460024012E07D2102D05D2B201DFF81000A90080180C582046BDE8E9
S35100002CCC70407047304A020010B50446002C1AD0606F002802D0606F0AF0DAFE606E002802D0606E0AF0D4FE606D002802D0606D0AF0CEFEA06E002802D0A06E0AF0C8FE20460AF0C5FEBDE810407047E3
S35100002D1870B50646B4692568002D02D14FF424401BE0012068620020A86048F20000C7F6FF7068603046FFF75FFF3046FFF798FFB4F84C10B4F85200814202D04AF2064003E02046FFF7BAFF0020BDE8C4
S35100002D64704070470FB42DE9F84785B00646B46920680490002001900498002802D14FF42440DAE00BF0A4F8B4F85800012806D2306B401C30634AF20F400190CAE01098800900900098182807D206F1E6
S35100002DB0F0010098800009180868401C0860012002900F9800F108050BE0686800F10F016FF00F0001406868814201D000200290083528680028F0D10298002804D0D6F88C00401CC6F88C00216FB4F812
S35100002DFC5A0040010F180F9800F10805686803901198012808D8039800F10F016FF00F000140039881424CD0002080461098402804D804F1800000F05FFF8046B8F1000F0CD0D4F88C200120B4F85A10A6
S35100002E4888401043C4F88C00706F401C70671DE010986189884204D804F17C0000F046FF8046B8F1000F0AD0D4F888200121B4F85A0001FA00F01043C4F8880006E0306B401C30634AF21640019051E0AE
S35100002E9400208146286882460BE008EB09006968524621F04FF809EB0A008146083528688246BAF1000FF0D108E02868814668688046D6F88800401CC6F88800388800F020003880404606F0E1F97860AD
S35100002EE0C9F30F0006F0DAF97880388840F08C003880388940F0400038810F9A616DB4F85A0080000A50B4F85800401E80B2A4F85800B4F85A00401C80B2A4F85A00B4F85A10B4F85E00814202D10020B7
S35100002F2CA4F85A004FF08071049841610AF0E2FF019805B0BDE8F84704B070472DE9F0410746BC6973E0216FB4F85C0040010D18288800F08000002870D1288806F098F9216E08432066206E80B28046C7
S35100002F7808F4006000280CD000202066F86A401CF862616DB4F85C0080000E58304631688847D4F88C200121B4F85C0001FA00F01040002813D0686806F076F9014604F1800000F091FED4F88C2001215D
S35100002FC4B4F85C0001FA00F0C0431040C4F88C001CE0D4F888200121B4F85C0001FA00F01040002812D0686806F058F9014604F17C0000F073FED4F888200121B4F85C0001FA00F0C0431040C4F88800FE
S35100003010B4F85C00401C80B2A4F85C00B4F85C10B4F85E00814202D10020A4F85C00B4F85800401C80B2A4F85800B4F85810B4F85E008142FFF485AFBDE8F041704700000FB4F8B5069DAE693468002C03
S3510000305C0FD0676806E04FF0406060602846FFF76DFF676807F040600028F4D14FF080706061BDE8F84004B0704700002DE9F84F8346DBF818008246DAF80060002700208046002E02D14FF4244023E0D1
S351000030A8DBF8044019E0A56814E0A8688146B9F1200F06D2012109F01F0001FA00F0074307E0012109F01F0001FA00F048EA00008046ED68002DE8D12469002CE3D1C6F82471C6F820810020BDE8F84F64
S351000030F4704700000FB438B505460C460AF0E8FE0698E16800F0EAFD0020E060E868002801D1EC6001E0286944602C61002060600AF0ECFEBDE8384004B0704770B506467468A5692846314605F180024B
S35100003140FFF7DAFFBDE870407047000070B506467468A5692846314605F18402FFF7CCFFBDE870407047000070B505466E68B4690AF0B0FE04F17800E96800F0B1FD0020E860E068002801D1E56001E0A2
S3510000318C20694560256100206860204600F006F80AF0B0FEBDE8704070470000F8B504462668002E42D00AF08FFE37E0E16EB4F8500040010D1804F1780000F095FD06F069F80746002F02D10AF094FE18
S351000031D82EE06F6000206880288800F020002880B4F85000401C80B2A4F85000B4F85010B4F85200814202D10020A4F85000B4F84C00401C80B2A4F84C00288840F080002880288940F4004028814FF0B3
S3510000322480703061B4F84C10B4F852008142C1D30AF064FEBDE8F840704700000FB470B506460C46A069002818D0002513E0706A401C7062E8002018006A002806D004F17800E9006118096A00F038FDDC
S351000032700021E800201801626D1C60698542E8D30020A0610698002801D000206061BDE8704004B0704700002DE9F84789B00546AC69002687E1E16EB4F84E00400108188046B8F8000000F08000002807
S351000032BC40F08081B4F84E00401C80B2A4F84E00B4F84E10B4F85200814202D10020A4F84E00B4F84C00401E80B2A4F84C00E869401CE861B8F8000005F0D2FF8146B8F8020005F0CDFF0890D8F80400F3
S3510000330805F0CAFF0690002002906069002801D1012000E000200190012082460020039009F00100002803D0686C401C686458E009F40060002850D009F00200002803D0286D401C28654CE009F02000D5
S35100003354002803D0A86C401CA86444E009F01000002803D0E86B401CE8633CE009F00400002803D0286C401C286434E00898800900900098182807D205F190010098800009180868401C086001200390D8
S351000033A008996069AA68D28A5043001D081A07900798002812DA00200890019800280AD104F11C006169491EC9004018026807995118016009E00120039006E00798089003E00120039000208246039888
S351000033EC002808D1A86A401CA862284621465246FFF720FFCEE00198002805D02846069908AA00F0B9FDA061A069002800F0C28006986169C9006118086208986169C9006118C8616069401C6061012097
S351000034380290BAF1000F0CD160690628C0F0AC80284621465246FFF7F7FEE86F401CE867A2E0E668E068002807D0E0684068E060E068002801D100202061002E00F08A807560DFF8540130600198002848
S3510000348453D104F1840000F033FC04900498002835D00498F0600020B060DFF834013060002725E0F8002018C069002814D00498F9006118096AFA00A218D26920F042FD0498F9006118C96940180490A9
S351000034D0B068F9006118C9694018B06004F17800F9006118096A00F0FBFB0020F900611808627F1C60698742D6D3286F401C286733E0D5F88400401CC5F88400284621465246FFF795FEE068002801D1C1
S3510000351CE66001E02069466026610020706000261DE00898B0600698F0600898402816D204F1800000F0D8FB0590059800280ED00598216A089A20F0F9FC0598F060DFF87C00306000200290E86E401C6C
S35100003568E866002E18D000203061002070613046A169C968A269526890470020A0610020606109E0284621465246FFF755FED5F88000401CC5F880000298002807D1686A401C686204F17800069900F0A9
S351000035B495FBB4F84C0000287FF473AE2046FFF7F1FD09B0BDE8F8477047C046693100004D310000313100000FB4F8B5069DAE693468002C0CD0676806E04FF0407060602846FFF74FFE676807F040700A
S351000036000028F4D1BDE8F84004B070470FB42DE9F0410446DDF82C800C9F002C01D1002046E02646706C00F07E00002801D0012000E00020002801D1002039E04FF4000060600A994FF6FF7001EA000235
S3510000364C0898800400F4F801099840F0804007AB1B78DB0503F078631843084340F4003010432064002508E0606800F40000002805D1002007F0CCF86D1CBD42F4D3BD4208D0B8F1000F05D0216C4FF68F
S35100003698FF700840C8F800004FF400006060BD4201D0012000E00020BDE8F04104B070470FB430B583B00546AC690020009008980190099802906068A97C079A4FF00053FFF798FF03B0BDE8304004B0BC
S351000036E4704700000FB430B583B00546AC690898009000200190099802906068A97C079A4FF08053FFF780FF03B0BDE8304004B0704700002DE9F84F83468A46DBF818008146D9F800504FF0FF34002DDE
S3510000373002D14FF424403CE000261BE01AF806700020804612E087EA040000F00100002807D064087F0848F22030CEF6B850444001E064087F0808F101008046B8F1080FE9D3761C062EE1D3A40E04F0CE
S3510000377C3F04CAF80840202C0AD2D5F82421012104F01F0001FA00F01043C5F8240109E0D5F82021012104F01F0001FA00F01043C5F820010020BDE8F84F70472DE9F0478CB00546002400208146DFF85E
S351000037C8DE0400680090A8680068007A00F07AFAA8680068007A00F067FA0646002E02D14FF4244057E2A8688089202802D94AF2174050E20AF06AFBB8200AF0A1FA0446002C03D14AF21540814638E286
S35100003814204640F20F410AF059FAAC612660A8680068407A00F042FA6060012070620020029005E0012006F0EFFF0298401C0290706A00F00100002803D00298B0F5803FF0D3706A00F00100002803D018
S351000038604AF2124081460EE20020B06048F20000C7F6FF707060A868408AA4F85200A8688089A4F85E00A868008A002809D0A868008A00F10F016FF00F00084080B2608107E0E88A00F10F016FF00F00C9
S351000038AC084080B26081A868C08A002809D0A868C08A00F10F016FF00F00084080B2208107E0A88A00F10F016FF00F00084080B22081B4F85210B4F85E000818400110300AF02CFA0B900B98002803D17A
S351000038F84AF204408146C2E10B9840F20E410AF0E3F90B98A0660B9800F10F016FF00F000840E066E06EB4F852104901401820672022E06EB4F85210491E490142522022206FB4F85E10491E49014252B9
S35100003944B4F85E00A4F85800B4F85E0080000AF0F9F96065606D002803D14AF2034081468FE1606D40F20C410AF0B0F918200590A868018B05984843069006980AF0E2F96066606E002803D14AF20340E1
S35100003990814678E1606E40F20D410AF099F9A868C1896089484310300990A868818A2089484310300A90A868408B80010890A868806800F00100002802D040F2F25001E040F2EE500490A868818B049833
S351000039DC48430790079A089B0A9909980818181810180AF003F98046B8F1000F03D14AF21440814641E1404640F2ED310AF062F9C4F8748008F10F016FF00F00084080460020E067002708E004F17C006F
S35100003A28414600F059F96089404480467F1CA868C0898742F2D308F10F016FF00F00084080460020A067002708E004F17800414600F042F92089404480467F1CA868808A8742F2D3002708E004F180003A
S35100003A74414600F033F908F1400080467F1CA868408B8742F2D3002708E004F18400414600F024F90498404480467F1CA868808B8742F2D3606E8246002711E0E068002802D1C4F80CA002E02069C0F898
S35100003AC004A0C4F810A00020CAF804000AF1180082467F1CA868008B8742E9D32046FFF763FBE87BA97B0B02297B0A06697B0904114319430843C6F8E400287C0006697C09040843C6F8E8000020C6F82D
S35100003B0C18010020C6F81C010020C6F820010020C6F824012089C6F88801E06EC6F88001206FC6F88401049801040020C3F6FF70084040F004000390A868806800F02000002804D0039840F480700390B4
S35100003B580AE0A868806800F04000002804D003996FF00400084003900398C6F88400A868806800F00400002805D0D6F8840040F00100C6F88400A868406800F00100002803D00020C6F8C40002E004205C
S35100003BA4C6F8C400A8680068017A14204143DFF8F6004058A9680968C968B0FBF1F0411C6FF0010001EA0007A868806800F01000002801D047F0800760684764706E40F0005070662846DFF8BE30A968B5
S35100003BF00968097A142251435918FEF7BDFF01900198002803D14AF2054081463BE04FF0C060B06012207062A868806800F0020000280DD02846A968096849680968884701900198002807D14AF212401F
S35100003C3C814622E0A8680068807AA874A868806800F08000002807D0D6F8440140F48070C6F84401D6F890012846A968096849684968884701900198002803D14AF21240814602E04FF080703061B9F1F7
S35100003C88000F05D02846FEF7F3FF2046FFF71EF80AF032F948460CB0BDE8F04770473C02FF1FEC4C020000000FB418B400240298002800D002E00024C4F20C04204618BC04B0704710B50446012C02D2E1
S35100003CD4204604F007FABDE81040704738B504460D46206828602560BDE838407047000038B505462C68002C01D0206828602046BDE83840704700000FB410B5029C2046A1680968496889688847BDE875
S35100003D20104004B0704700000FB418B4044603A80088002801D1002C08D10498002802D040F2F25003E040F2EE5000E0204618BC04B070470FB430B4029CA068058A002D02D140F2DC500AE0A068806895
S35100003D6C00F00100002802D0A5F1160001E0A5F1120030BC04B0704770B50646002E02D14FF424401CE034466068002802D04AF2184015E02046A16809680968496888470546002D0BD104F5A87009F085
S35100003DB8FDFB06202146224609F074FA204609F069FE2846BDE87040704700000FB42DE9F04786B01F460E9C129800F00200002802D01220059001E00E2005900F9881680598814206D2606B401C60631D
S35100003E044AF20A400390B1E000200490049881460F980830804615E0D8F80010E08A814206D9606B401C60634AF20B4003909DE0D8F80000484481460498401C049008F108008046D8F800000028E5D180
S35100003E50E08A814506D9606B401C60634AF20B40039085E00F98C5683878287078786870B878A870F878E8703879287178796871207BA871607BE871A07B2872E07B6872207CA872607CE87205F10C06DA
S35100003E9C129800F0020000281AD0B01C02901298800800F00700400381B201A80180812030700020707001A800880012C1B20298017001A80088C1B2029841700298861C129800F00100002820D0B01C53
S35100003EE882460598A9EB0000000AC0B230700598A9EB0000C0B27070AA208AF80000AA208AF8010003208AF8020000208AF8030000208AF8040000208AF805000AF1060610A800880012C0B2307010A89B
S35100003F340088C0B2707004F5A87009F0B5FB129800900E980F994A46049BD4F808C0DCF800C0DCF800C0DCF808C0E047039004F5A87009F051FB0398002803D00F980F9909688847039806B0BDE8F04736
S35100003F8004B070470FB42DE9F80F83B00D4693460E20814605F10C07387800027978084380B28046B8F5014F0CD1B81C009009F1040081460098871C387800027978084380B2804640F2DC5080451FD823
S35100003FCCB81C82469AF80000AA2803D19AF80100AA2801D000207BE0DBF8000009EB0801884201D2002073E009EB0800CBF800000AF10607387801027878084380B280460C98466860E0308840455CD195
S351000040182878C1B200A801716878C1B200A84171A878C1B200A88171E878C1B200A8C1712879C1B200A801726879C1B200A8417200A8007900F00100002842D000A80079FF2813D100A84079FF280FD1E4
S3510000406400A88079FF280BD100A8C079FF2807D100A8007AFF2803D100A8407AFF282AD0B4681EE000A801792078814218D100A841796078814213D100A88179A07881420ED100A8C179E078814209D152
S351000040B000A8017A2079814204D100A8417A6079814202D0E468002CDED1002C05D1002603E03669002E7FF49CAF304603B0BDE8F80F04B0704700000FB4F8B50F46069E06F5A87009F0DAFA351D0DE014
S351000040FC28680088B84206D106F5A87009F080FA4AF2084026E0286800F1100528680028EED1142009F012FE0446002C06D106F5A87009F06DFA4AF2074013E0204640F2EF3109F0C7FD2780089860607D
S351000041480020A0600998E060002020612C6006F5A87009F057FA0020BDE8F84004B070472DE9F84306460D4617460024002E02D14FF4244071E0B18A708A814202D24AF217406AE0062009F005F80446B9
S3510000419407E0A0680068017A3068007A814202D02468002CF5D1002C03D03C604AF2194055E0002038604FF4B67009F0C3FD0446002C02D14AF2024049E020464FF47B7109F07CFD2878207368786073C6
S351000041E0A878A073E878E0732879207468796074A660A068806800F00100012801D1012000E000208146A068008A00214A46FFF78BFDE082A068C08AA168898B4A46FFF783FDA08204F5A870012109F00D
S3510000422C3DF9204631680968096888478046B8F1000F06D106202146224608F0E7FF3C6008E004F5A87009F0AFF9204609F020FC002038604046BDE8F84370470FB410B50446012C09D2DFF81E10242089
S35100004278604308180399059AFFF772FF01E04FF42440BDE8104004B07047004D020000000FB42DE9F84381464D4605F5A87009F001FA2C1D08E02068018809A80088814205D0206800F110042068002894
S351000042C4F3D12068002806D105F5A87009F09CF94AF2094022E026683069206005F5A87009F092F9B768304609F0D6FB05E0F8688046384609F0D0FB4746002FF7D105F5A87009F0D1F94846A9680968E4
S3510000431009688969884705F5A87009F077F90020BDE8F84304B070470FB430B40D46029C207B2870607B6870A07BA870E07BE870207C2871607C6871002030BC04B070470FB408B502980399049A03F037
S3510000435C21FFBDE8084004B07047000038B5054600241EE000200090E0B2A8742846022100AA4FF48033D5F808C0DCF800C0DCF800C0DCF80CC0E047002809D00098002806D000994FF6FF70814201D0B2
S351000043A8012003E0641C202CDED30020BDE838407047000038B5044600200090A068806800F00800002823D02046002100AA4FF48033D4F808C0DCF800C0DCF800C0DCF80CC0E04700284AD0009840F4AC
S351000043F48040009020460021009A4FF48033D4F808C0DCF800C0DCF800C0DCF810C0E047012037E02046012100AA4FF48033D4F808C0DCF800C0DCF800C0DCF80CC0E047002826D0009800F008000028D0
S351000044401FD000251AE02046012100AA4FF48033D4F808C0DCF800C0DCF800C0DCF80CC0E047002806D0009800F02000002801D0012009E0052006F0D1F96D1CB5F5167FE1DB012000E00020BDE8384021
S3510000448C7047000018B581B0044620461F2100AA4FF48033D4F808C0DCF800C0DCF800C0DCF80CC0E047002813D0009800F01C0000900098042802D00098142801D10A2008E00098082802D00098182817
S351000044D801D1642000E0002001B0BDE81840704738B5044600252046002100AA4FF48033D4F808C0DCF800C0DCF800C0DCF80CC0E04700282CD0009800F40040002827D12046012100AA4FF48033D4F8CD
S3510000452408C0DCF800C0DCF800C0DCF80CC0E047002817D02046012100AA4FF48033D4F808C0DCF800C0DCF800C0DCF80CC0E047002807D0009800F00400002801D0012500E000252846BDE838407047E3
S351000045700FB418B4002402A80078002800D003E041F20004C4F20B04204618BC04B070470FB42DE9F0470446802081460F2082464FF0FF308046022612E001250DE00A9806FB05F148430999471A002F39
S351000045BC04DBB84502D9B846B146AA466D1C102DEFD97600B6F5807FE9D9E16A6FF008000840E062E16A0F20CFF6F07001EA00054FEA5900000200F47F4040F46020AAF10101090101F0F001084328439C
S35100004608E06202E0052006F005F9606A00F008000028F7D0E06A40F00800E062206B40F480102063BDE8F04704B070470FB430B40546296B039801EA0004002CF9D0204630BC04B07047000070B5044664
S351000046540E461546002030602868C0B2002103F0C7FCB0F1FF3F02D140F60B204AE048F20000C0F20010E062E06A00F080700028FAD10020C4F8C0004FF4813060602820A0620220C0F2010060642046AB
S351000046A0A96841F68022C0F20602FFF771FF606A00F003000028FAD12868C0B24FF6FF7103F098FCB0F1FF3F02D140F60B201BE04FF6FF702063B320C0F27F006063E06A40F00060E062E06A00F000600E
S351000046EC0028FAD1606A00F48030002801D001203060206B40F0800020630020BDE8704070470000F8B504460D462E6806F44000800D022801D146F40016A868002827D0E868002824D046F40016A86899
S35100004738012801D046F02006A868B0F1FF3F09D1E96841F6FF7001400020CFF6FF7041EA000710E0E96841F6FF7001EA0002A86801040020CFF6FF70084042EA000746F0020600E00027206B40F080001A
S351000047842063606A00F001000028FAD16868A060676000202060E66020460121C0F20E01FFF746FF012807D0216B0120C0F20F000843206301202CE0206B00F08000002805D0206B40F0011020630120E0
S351000047D021E0206B00F48030002806D0206B40F0011020634FF0FF3015E006F4403000280CD02069286106F44030B0F5803F05D160696861A069A861E069E861206B40F0010020630020BDE8F84070476A
S3510000481CF8B584B007460E46002F01D0002E01D10C2030E009F050FB082009F087FA0446002C03D109F05EFB042024E0204640F2114109F03FFADFF846000090DFF842000190DFF84200029003943846AF
S35100004868DFF83A10DFF83A20DFF83A3005F000FF0546002D03D126600020606002E0204609F008F909F038FB284604B0BDE8F8407047D1510000094A0000B5480000ED480000814900004150000000009F
S351000048B438B50546002D02D140F6012011E06C6A002C02D140F60B200BE06068002802D040F60A2005E0204609F0DEF8002068620020BDE8384070472DE9F8438046B8F1000F01D10C203EE0D8F80070CC
S35100004900002F02D140F6012037E07C6A002C02D140F60B2031E02668002E02D140F60B202BE03068C0B2FFF723FE8146B9F1000F02D140F60B2020E009F0CCFA6068002803D009F0DDFA2C2017E0012018
S3510000494C606009F0D7FA042009F0F8F90546002D01D104200BE0284640F2124109F0B2F9C8F80450484629463246FFF76BFEBDE8F84370472DE9F0410646002E01D10C2038E03768002F02D140F6012043
S3510000499832E07C6A002C02D140F60B202CE020688046B8F1000F02D140F60B2024E0D8F80000C0B2FFF7D8FD0546002D02D140F60B2019E009F082FA6068401E6060606800280ED148F20000C0F2001053
S351000049E4E862E86A00F080700028FAD1706809F053F80020706009F081FA0020BDE8F041704700000FB42DE9F84791B000261C9D1A98002801D10C200BE31A98006808900898002802D140F6012002E35E
S35100004A301A9840688046B8F1000F02D140F60120F9E20898406A07900798002802D140F60B20F0E2079800688146B9F1000F02D140F60B20E7E2D9F80000C0B2FFF780FD0446002C02D140F60B20DCE207
S35100004A7C1B99092906D8092900D3ACE2032900F0BD82CFE241F20130081A062800F2CA824FEA80008744F0BF00F00CB800F0BFB900F06CBA00F0CAB900F0DDB900F014BA00F02CBA204641464A46FFF72E
S35100004AC8C3FD0646002E40F0B1820020069000200590002004900020039000208246002002900020099000200A9000200B90204609A9FFF709FE002802D04AF6014695E20020C0F61A0009904FF4D57047
S35100004B140A9000200B90204609A9FFF7F7FD0746002F02DD4AF6014682E2002F08D10D990A98814202D04AF6014679E2012082460020C0F20250099000200A9000200B90204609A9FFF7DAFD0746002F6F
S35100004B6002DD4AF6014665E2002F3AD10D98000F00F00700002836D00D9800F44010002831D00020C0F2025009904FF440100A9000200B900027052005F040FE7F1C204609A9FFF7B5FD002802D04AF678
S35100004BAC014606E00D9800F00040002801D1C82FEBDB002E40F038820D9800F00040002801D0012005900D9800F00060002804D00120029001E0012002900298002800F0D0800020C3F21A700990002010
S35100004BF80A9000200B90204609A9FFF785FD0746002F02DD4AF6014610E2002F58DA0020059000200690002082464FF0807009900020C4F230000A9000200B90204609A9FFF76AFD002802D04AF60146E5
S35100004C44F6E10D9800F0C040B0F1005F01D101208246012004900020C2F2027009904FF440600A9000200B90204609A9FFF74EFD002802D04AF60146DAE10D98000A00F0FF00CE2840F081800020C2F2FD
S35100004C90027009904FF450600A9000200B90204609A9FFF735FD002802D04AF60146C1E10D98000A00F0FF00AA2840F06880002004900120039062E00020C2F60210099000200A9000200B90204609A9DA
S35100004CDCFFF718FD002802D04AF60146A4E10D9800F4401000284CD00027052005F090FD7F1C0020C3F21A70099000200A9000200B90204609A9FFF7FDFC002802D04AF6014620E00020C2F60210099067
S35100004D28BAF1000F04D00020C4F230000A9002E04FF440100A9000200B90204609A9FFF7E3FC002802D04AF6014606E00D9800F00040002801D1C82FC9DB002E40F06681C82F02DB002082460DE0012074
S35100004D740690BAF1000F08D0002082460D9800F08040002801D0012082460498002802D00720C8F800000398002802D00820C8F800000598002802D00420C8F800000698002808D00220C8F80000BAF106
S35100004DC0000F02D00320C8F80000059800280BD00698002808D00520C8F80000BAF1000F02D00620C8F80000D9F80000C0B2002103F000F9B0F1FF3F02D140F60B201AE12046D9F80810D9F80420FFF7B0
S35100004E0CC1FBD9F80000C0B24FF6FF7103F0ECF8B0F1FF3F40F0088140F60B2005E120462946FFF76FFC0746002F01DD4AF60246002F80F2F9804AF60346F5E0002D01D10C26F1E0E06A00F47F40000A51
S35100004E584700E06A00F0F0000009401C4743D9F80800B0FBF7F02860E0E0002D01D10C26DCE02868002801D10C26D7E001940198416A40F207300840002801D0012000E0002000281FD1D9F80000C0B296
S35100004EA4002103F0A5F8B0F1FF3F02D140F60B26BEE02046D9F808102A68FFF767FBD9F80000C0B24FF6FF7103F092F8B0F1FF3F40F0AE8040F60B26AAE040F60A26A7E0002D01D10C26A3E0A06A00F0DD
S35100004EF006004708002F02D1002028609AE0012F02D10120286095E0102F02D10220286090E04AF605468DE0002D01D10C2689E000940098416A40F207300840002801D0012000E00020002823D12868CA
S35100004F3C002806D1A16A6FF006000840A062A06A72E02868012809D1A16A6FF006000840A062A06A40F00200A06265E02868022806D1A16A6FF006000840A062A06A5BE04AF6054658E040F60A2655E050
S35100004F88002D01D10C2651E0E06A40F00060E062E06A00F000600028FAD1206B00F08000002806D0206B40F0800020630020C8F80000606A00F48030002807D0D8F80000002806D10120C8F8000002E036
S35100004FD40020C8F80000D8F80000286028E01C202860042068604FF41E70A8601A98806800F0010000281BD0A9686FF040000840A86015E020460221FFF712FB206B00F4E000002805D0206B40F4E000A8
S3510000502020634AF60446206B40F03200206301E040F60926304611B0BDE8F84704B070470FB42DE9F84781B00D460A98002802D14FF0FF30B6E00A9800688046B8F1000F02D14FF0FF30ADE00A98406818
S3510000506C00900098002802D14FF0FF30A4E0D8F824008146B9F1000F02D14FF0FF309BE0D9F800008246BAF1000F02D14FF0FF3092E0DAF80000C0B2FFF764FA0446002C02D14FF0FF3087E00C9E05F052
S351000050B8030000284CD11BE0206B00F4E000002808D0216B2020C0F27000084320634FF0FF3073E0606A00F40060002804D1606A00F004000028F5D1206A28602D1D361F042EE1DA2EE0206B00F4E000B5
S35100005104002808D0216B2020C0F27000084320634FF0FF3054E0606A00F40060002804D1606A00F004000028F5D1276A29466D1CF8B2087028466D1C390AC9B2017028466D1C390CC9B2017028466D1C44
S35100005150390EC9B20170361F042ED0DA002E21D0206B00F4E000002808D0216B2020C0F27000084320634FF0FF3023E0606A00F40060002804D1606A00F004000028F5D1276A05E029466D1CF8B20870A7
S3510000519C3F0A761E002EF7D1206B00F4E000002808D0216B2020C0F27000084320634FF0FF3001E00C98801B01B0BDE8F84704B0704700000FB42DE9F84781B00A98002802D14FF0FF30ACE00A9800685B
S351000051E88046B8F1000F02D14FF0FF30A3E00A98406800900098002802D14FF0FF309AE0D8F824008146B9F1000F02D14FF0FF3091E0D9F800008246BAF1000F02D14FF0FF3088E0DAF80000C0B2FFF782
S351000052349DF90446002C02D14FF0FF307DE00B9D0C9F05F00300002846D116E0206B00F4E000002808D0216B1020C0F27000084320634FF0FF3068E0606A00F480600028FAD0286820622D1D3F1F042FC0
S35100005280E6DA2DE0206B00F4E000002808D0216B1020C0F27000084320634FF0FF304EE0606A00F480600028FAD028466D1C067828466D1C00780002064328466D1C00780004064328466D1C0078000678
S351000052CC0643606A00F480600028FAD026623F1F042FD1DA002F1CD0206B00F4E000002808D0216B1020C0F27000084320634FF0FF301EE04FF0FF3603E03602E85D06437F1E002FF9D1606A00F4806010
S351000053180028FAD02662206B00F4E000002808D0216B1020C0F27000084320634FF0FF3001E00C98C01B01B0BDE8F84704B070470FB42DE9F00300208046002081464FF0FF3700241BE0002516E0079B06
S35100005364A100DFF854004258A900DFF850004058504303FB00F106980E1A002E00DA7642B74202D93746A046A9466D1C402DE6D3641C032CE1D3C8F307008001C0B200F0C001C9F30700C0B200F03F001F
S351000053B00843BDE8F00304B07047C046844A0200904A02000FB400B583B0DFF82C000090DFF828000190059802900498DFF82010DFF82020DFF8203001F06AF903B05DF804EB04B07047C0462559000093
S351000053FC2D5500000D540000ED54000091580000F8B506460F46307800F08CFC0546002D02D14AF602105FE05C2008F08FFC0446002C01D1042057E0204640F20B4108F049FC307802F012FE3C60B44605
S3510000544823460222BCE8030003C3521E002AF9D1DCF80000186065610020A0610020E06100202062707884F82400002084F82500002084F82600002084F827000020A0620020E0620020206300206063A6
S351000054940020A0630020E06300202064002060640020A0640020E06400202065002060650020A0650020A8700020E870B0784000C0B2287046F60040C0F2DC207168FFF739FFC0B26870A87840F0800014
S351000054E0A8700020BDE8F8407047000070B505460E46002E01D0002D02D14AF6031012E07469E07800F02000002802D04AF6011009E00020A070FF20E070A86908F0BEFA0020A8610020BDE87040704778
S3510000552C0FB42DE9F84304461646002765690998032802D803282DD09AE1A0F20140112800F296814FEA80008744F0BF00F0FBB800F010B900F0D8B800F0E1B800F0EAB800F03BB900F046B900F024B956
S3510000557800F02CB900F0B8B800F04DB800F06CB800F045B900F04CB900F058B900F0B4B800F0B7B800F05FB9002100A8417005E000A84078411CC9B200A8417000A84078FF28F5D3E97800A84170A878E3
S351000055C400F01000002809D000A8407800F0A0002028E3D0E16B206C8142DFD1206CE06394F8270000F0020000280DD000A8407800F02000002807D1002084F827000020A062072084F82500002E00F0AA
S35100005610358100A8407800F0010030602EE14AF60117A87800F02000002800F0278194F82500022803D1E16B206C81420BD094F82500032802D1A06A002804D094F82500072840F01381012084F825001A
S3510000565C00270DE1A87800F0E700A870E87840F01200E8700020A062002084F82700002084F82500206B6063A87800F02000002803D1297900A8417003E0A87800F0DF00A870002100A8417005E000A8D2
S351000056A84078411CC9B200A8417000A84078FF28F5D3E97800A841700FE000A8407800F00200002806D0E87840F00200E870297900A84170E97800A8417000A8407800F020000028E9D1C5E0002E02D1E8
S351000056F44AF60317C0E03068A062BDE0A87800F07F00A870B8E0A87840F08000A870B3E094F82500002802D04AF60117ACE0002084F82400A8E094F82500002802D04AF60117A1E0012084F824009DE0E0
S35100005740002E02D14AF6031798E094F82400306094E0002E02D14AF603178FE0E87800F02000002802D04AF6011787E046F60040C0F2DC203168FFF7E7FDC0B268707DE0002E02D14AF6031778E06878C6
S3510000578C00F0C00080098100DFF8F00040588146687800F03F008100DFF8E4004058804646F60041C0F2DC2109FB08F0B1FBF0F030605DE0002E02D14AF6031758E03068C0B284F8260053E0002E02D14E
S351000057D84AF603174EE094F8260030604AE0002E02D14AF6031745E03068C0B24000C0B200F0FE0028703DE0002E02D14AF6031738E0287800F0FE004008306032E0002E02D14AF603172DE094F82500A8
S35100005824306029E0002E02D14AF6031724E004F14403032203CB03C6521E002AFAD11BE0002060640020A0640020E06400202065002060650020A0650EE0002E02D14AF6031709E0E87800F020000028FD
S3510000587002D00120306001E0002030603846BDE8F84304B07047C046844A0200904A02000FB4F8B50746BC69656994F8270040F0010084F8270094F82560002E01D0012E2ED1032084F8250094F824006E
S351000058BC002827D1A87840F01000A870E87840F00200E870012E04D1A87840F00400A87003E0A87840F02000A87094F8270040F0020084F8270094F82600400040F00100C0B22871E06C401CE064E8783B
S3510000590800F002000028FAD028462146079A089B00F04CF8BDE8F84004B070470FB4F8B50746BC69656994F8270000F0FE0084F8270094F82560002E01D0012E2CD1022084F8250094F82400002825D113
S35100005954A87840F01000A870E87840F00200E870012E04D1A87840F00400A87003E0A87840F02000A87094F8270040F0020084F8270094F826004000C0B22871E06C401CE064E87800F002000028FAD00F
S351000059A028462146079A089B00F004F8BDE8F84004B070472DE9F84305460C4690461F460026AEE1E8788146A87800F02000002817D1BE4201D13046A7E194F8270000F0020000280DD009F02000002868
S351000059EC09D1002084F827000020A062072084F82500304693E109F002000028DCD094F8270040F0020084F82700A87800F02000002800F0A580A87800F0100000285BD009F0010000280BD0E87840F034
S35100005A380200E870072084F82500A06D401CA065374669E194F82500022818D194F8270000F00100002810D1BE4280F05D81E87840F00200E870414608F10100804608782871E06C401CE0644EE1374624
S35100005A844CE194F82500032828D194F8270000F00100002820D0A87800F0EF00A870A06A012804D1A87840F00800A87003E0A87800F0F700A870E87840F00200E870A06A002804D1072084F8250037464B
S35100005AD026E1297900A80170761E21E137461FE137461DE194F8250003283DD194F8270000F00100002835D0A06A002832D0BE4280F00E81E87840F00200E870A06A401EA062A06A012804D1A87840F09A
S35100005B1C0800A87003E0A87800F0F700A870A06A002803D1A87840F01000A870414608F10100804628790870A06A002808D1A87800F0EF00A870072084F82500771C3E46A06C401CA064DDE03746DBE0D5
S35100005B683746D9E009F0100000280AD0E87840F01000E870062084F82500206D401C2065374609F04000002853D094F82400002802D1606D401C606509F0040000281FD0052084F8250094F8270000F066
S35100005BB40100002814D1BE4280F0B080A87840F01000A870E87840F00200E870414608F10100804608782871E06C401CE0649DE037469BE0042084F8250094F8270000F0010000281DD0002E1BD1A06A2C
S35100005C00002818D0A87800F0EF00A870E87840F00200E870A06A012804D1A87840F00800A87003E0A87800F0F700A870297900A80170761E74E0374672E009F01000002840F06D80A87800F010000028BF
S35100005C4C2FD009F0010000280BD0E87840F00200E870072084F82500A06D401CA065374658E094F82500022803D094F82500052815D194F8270000F0010000280FD1BE4248D2E87840F00200E87041468C
S35100005C9808F10100804608782871E06C401CE0643AE0374638E094F82500032803D094F8250004282DD194F8270000F00100002827D0A06A002824D0BE4225D2E87840F00200E870A06A401EA062A06A7E
S35100005CE4012804D1A87840F00800A87003E0A87800F0F700A870A06A002802D1072084F82500414608F10100804628790870A06C401CA06402E0374600E03746761CBE427FF64EAE3846BDE8F843704791
S35100005D300FB418B402A80078001E002803D0401E002805D009E046F20004C4F2060405E047F20004C4F2060400E00024204618BC04B070470FB418B402A80078001E002803D0401E002802D003E028243B
S35100005D7C02E0292400E00024204618BC04B070470FB400B583B0DFF82C000090DFF828000190059802900498DFF82010DFF82020DFF8203000F0A0FB03B05DF804EB04B07047C046196000002D55000031
S35100005DC8D55D00009D5E0000FD5E00000FB42DE9F84382B08046D8F81450284608F118010B9AFFF70FFB0746002F01D0384649E0D8F81840606981462878FFF7AFFF0646002E02D14AF602103CE0266269
S35100005E14286907F0EFFEE062E06A002801D1042032E0E86807F0E6FEA063A06B002806D1E06A07F031FE0020E062042024E0E06A40F2094107F042FFA06B40F20A4107F03DFF304608F0ACF801900198E4
S35100005E60E0613046DFF83010224608F0D7F800900098A0613046297A012203F0E1FA99F8020040F0400089F80200384602B0BDE8F84304B07047C04619610000F8B506460C46002C01D0002E02D14AF6B6
S35100005EAC031022E06569E87800F02000002802D04AF6011019E00020A870FF20E8707769206AA169E26908F0A3F8B06907F0E0FD0020B061E06A07F0DBFD0020E062A06B07F0D6FD0020A0630020BDE8B6
S35100005EF8F84070470FB42DE9F84181B080460F46D8F81840656907F0E1FF206A03F0EAFA07F0F2FF002613E0616B206B814212D0616B606B401C60633A467F1CE06A405C1070616B2069814201D300209D
S35100005F446063761C0A988642E8D394F8270040F0010084F8270094F8251000A8017000A80078002803D000A80078012830D1032084F8250094F82400002829D1A87840F01000A870E87840F00200E870D3
S35100005F9000A80078012804D1A87840F00400A87003E0A87840F02000A87094F8270040F0020084F8270094F82600400040F00100C0B22871E06C401CE064E87800F002000028FAD0A87800F0200000288C
S35100005FDC12D194F8270000F0020000280CD0E87800F02000002807D1002084F827000020A062072084F82500206A03F057FA304601B0BDE8F84104B0704700000FB42DE9F84381468846D9F818406569EC
S3510000602807F054FF206A03F05DFA07F065FF002712E0E06B461CE068864200D30026206C86420CD0414608F1010080460978A06BE26B8154E6637F1C0A988742E9D394F8270000F0FE0084F8270094F8DE
S351000060742560002E01D0012E2CD1022084F8250094F82400002825D1A87840F01000A870E87840F00200E870012E04D1A87840F00400A87003E0A87840F02000A87094F8270040F0020084F8270094F848
S351000060C026004000C0B22871E06C401CE064E87800F002000028FAD0A87800F02000002812D194F8270000F0020000280CD0E87800F02000002807D1002084F827000020A062072084F82500206A03F06F
S3510000610CD5F93846BDE8F84304B070470FB478B581B0069C6569EE78606C401C6064A87800F02000002800F0C980A87800F01000002800F0698006F0010000280CD0E87840F00200E870E06B206407203A
S3510000615884F82500A06D401CA065BCE194F82500022822D1E16B206C81421AD094F8270000F00300022814D1E87840F00200E870216C206C401C2064A06B405C2871216CE068814201D300202064E06CC2
S351000061A4401CE06499E1206A03F09EF995E194F82500032828D194F8270000F0030003281ED1A87800F0EF00A870A06A012804D1A87840F00800A87003E0A87800F0F700A870E87840F00200E870A06AEB
S351000061F0002803D1072084F8250070E1297900A801706CE1206A03F071F968E1206A03F06DF964E194F82500032851D194F8270000F00300032847D1A06A002844D0206B401CC1B200A8017000A8017827
S3510000623C2069814202D3002100A8017000A80178606B814203D1206A03F04AF941E1E87840F00200E870A06A401EA062A06A012804D1A87840F00800A87003E0A87800F0F700A870A06A002803D1A8785C
S3510000628840F01000A8702A79E16A206B0A5400A800782063A06A002806D1A87800F0EF00A870072084F82500A06C401CA06412E1206A03F017F90EE1206A03F013F90AE106F01000002809D0E87840F024
S351000062D41000E870062084F82500206D401C206506F04000002860D094F82400002802D1606D401C606506F00400002829D0052084F8250094F8270000F0030002281CD1E16B206C814218D0A87840F043
S351000063201000A870E87840F00200E870216C206C401C2064A06B405C2871216CE068814201D300202064E06C401CE064C7E0206A03F0CCF8C3E0042084F8250094F8270000F0030003281ED1616B206B7D
S3510000636C81421AD1A06A002817D0A87800F0EF00A870E87840F00200E870A06A012804D1A87840F00800A87003E0A87800F0F700A870297900A801709BE0206A03F0A0F897E006F01000002840F090806D
S351000063B8A87800F0100000283BD006F0010000280CD0E87840F00200E870E06B2064072084F82500A06D401CA0657CE094F82500022803D094F8250005281ED1E16B206C81421AD094F8270000F0030054
S35100006404022814D1E87840F00200E870216C206C401C2064A06B405C2871216CE068814201D300202064E06C401CE06455E0206A03F05AF851E094F82500032803D094F82500042842D194F8270000F0A1
S35100006450030003283CD1A06A002839D0206B401CC1B200A8017000A801782069814202D3002100A8017000A80178606B814203D1206A03F033F82AE0E87840F00200E870A06A401EA062A06A012804D104
S3510000649CA87840F00800A87003E0A87800F0F700A870A06A002802D1072084F825002A79E16A206B0A5400A800782063A06C401CA06406E0206A03F00BF802E0206A03F007F894F8270040F0020084F864
S351000064E8270001B0BDE8784004B070470FB410B584B0242007F024FC0446002C01D1042023E0204640F2074107F0DEFB07982060089860600998A0600A98E0600B9820610C986061DFF82E000090DFF895
S351000065342E000190DFF82A00029003940698DFF82610DFF82620DFF8263004F093F804B0BDE8104004B07047C0465D6600007966000079650000AD650000FD65000041660000000038B505466C6AE069AC
S3510000658000280DD16068002803D02046A16962689047204607F082FA00206862002001E040F60A20BDE83840704700000FB42DE9F0410746904600253E68746A07F08AFCE069002803D007F09BFC2C2086
S351000065CC11E00120E06107F095FCC4F82080C7F8088020460799226890470546002D01D00020E0612846BDE8F04104B070470000F8B5074600263D686C6A07F065FCE069002803D107F076FC2C2010E062
S35100006618E069401EE061E069002807D16068002804D02046A16962689047064607F064FC3046BDE8F84070470FB470B5064635686C6A20460599069AA3689847BDE8704004B070470FB470B506463568B7
S351000066646C6A20460599069AE3689847BDE8704004B070470FB42DE9F8438146884600260A9CD9F800707D6AB8F1090F00D007E016202060002060604A20A060002608E02869002805D0A86941462246CF
S351000066B02B69984706463046BDE8F84304B070470FB410B584B0242007F03EFB0446002C01D1042023E020464FF4816107F0F8FA07982060089860600998A0600A98E0600B9820610C986061DFF82E0075
S351000066FC0090DFF82E000190DFF82A00029003940698DFF82610DFF82620DFF8263003F0ADFF04B0BDE8104004B07047C046216800003D6800004567000079670000CD67000005680000000038B50546BB
S351000067486C6AE06900280DD16068002803D06069A16962689047204607F09CF900206862002001E040F60A20BDE83840704700000FB42DE9F0410746904600253E68746A07F0A4FBE069002803D007F0EB
S35100006794B5FB2C2013E00120E06107F0AFFBC4F82080C7F80880606904F11801079A236898470546002D01D00020E0612846BDE8F04104B070470000F8B5074600263D686C6A07F07DFBE069401EE061F1
S351000067E0E069002807D16068002804D02046A16962689047064607F083FB3046BDE8F840704700000FB470B5064635686C6A20460599069AA3689847BDE8704004B070470FB470B5064635686C6A20467C
S3510000682C0599069AE3689847BDE8704004B070470FB42DE9F8438146884600260A9CD9F800707D6AB8F1090F00D007E017202060002060604C20A060002608E02869002805D0A869414622462B699847CB
S3510000687806463046BDE8F84304B070470FB478B404994FF47A7001FB00F5602605FB06F401E0C046641E002CFBD178BC04B0704770B5064600254DF20004C4F2030406F00100002821D007F009FB20696D
S351000068C440F0010020610021DFF8DC0001600021DFF8D80001600021DFF8D40041600021DFF8CC00016021696FF00100084020614FF0FF30A0600120206007F0FFFA06F00200002816D007F0E3FA2069C3
S3510000691040F00100206121696FF0010008402061012020600021DFF88C0041600021DFF88400016007F0E4FA06F00400002830D0206900F00100002804D021696FF00100084020615220DFF860102246EC
S3510000695C07F05EFB002802D104F0A4FD0546002D19D1606900F01000002804D0206900F4807000280AD1206940F4807020617D20FFF77AFF606940F01000606152200421012202F04FFD2846BDE87040B3
S351000069A87047C046F006FF1FEC06FF1FE006FF1FBD690000F8B54DF20004C4F203040126656905F00300002824D061696FF01000084060614FF0FF30A06001202060606940F01000606105F002000028A2
S351000069F401D0042200E0002205F00100002801D0082300E00023DFF8B400016843EA02000143DFF8A800016005F00400002836D0A768DFF89C000068874210D1DFF88C00006840F00101DFF88400016080
S35100006A40DFF87C0041686FF00100084000F0B2F80026DFF874000068874210D1DFF86000006840F00201DFF858000160DFF8500041686FF00200084000F09CF80026012E07D1DFF83C0041686FF0030099
S35100006A8C084000F091F8DFF82C00806800280DD0DFF820000168DFF81C0040680840002804D02046DFF80C1089688847BDE8F8407047C046E006FF1FF006FF1FEC06FF1F38B505460024E90FC1EB8570F8
S35100006AD801EBB07000280FD10124284664211DF097FC002900D1002428464FF4C8711DF08FFC002900D101242046BDE838407047F8B5044600252088A0F2B27140F26D1001FB00F540F2B27704E0B8B2E5
S35100006B24FFF7D2FF2D187F1C20888742F7D301260CE0701E4100DFF84C00405A2D18022E03D12088FFF7C0FF2D18761C60888642EFD3A088401E2D18608922893C2102FB01FC45F28011C0F2010105FB7D
S35100006B7001F3E2884FF461615143591861444018BDE8F8407047C046904B020038B505464DF20004C4F2030461696FF010000840606128682060606940F010006061BDE83840704770B506464DF200041B
S35100006BBCC4F2030406F00305002D03D14FF0FF30A06021E0032D13D12568DFF844000068411BDFF840000068401B814203D8DFF83000006802E0DFF82C000068A0600BE006F00100002803D0DFF81400E0
S35100006C08006802E0DFF810000068A060BDE870407047C046F006FF1FEC06FF1F0FB410B582B00446206800900020019000A8059904F064F902B0BDE8104004B0704700000FB4F0B587B00C98012812D1A6
S35100006C5402AC4DF20005C4F203052868206002A803A9FFF7DDFF03A800A903F0B9FE00A804F0BCF80FE000A803F098FF00A803A904F03EF902AE03AF3846FFF73BFF306002A8FFF779FF002007B0BDE8E4
S35100006CA0F04004B0704700002DE9F04105468846174600240026B8F1000F19D0002F17D03801B8FBF0F4002C0CD0790820017843A8EB000040000818B0FBF7F6202E01D3641C002641F6FF70844201D97B
S35100006CEC162012E0200A00F01F002870E0B26870A87A00F0E000A872A97AF0B2C0B200F01F000843C0B2A8720020BDE8F04170470FB400B585B0DFF834000090DFF830000190DFF8300002900798039072
S35100006D38089804900698DFF82410DFF82420DFF8243000F031FB05B05DF804EB04B07047E56E0000096F0000856F0000716D00008D6E0000C56E00000FB42DE9F84783B08246DAF80460F0B200F0D8FDEB
S35100006D840446002C01D12B2079E0582006F0DAFF0546002D01D1042071E00D9805602C625246AC46042303CAACE803005B1E002BF9D101202863A86802901527F0B2394600F0FCFEF0B2042100F0F8FE6E
S35100006DD020460299EA68FFF767FF0020A070E07800F0FD00E070A07A00F03F00A07200202072002060720020A071207C00F070000009002802D10020E07410E00120217C01F070010909491C8840C1B297
S35100006E1C00A8017000A80078401EC0B2C0B2C0B2E07401206075E07800F0F300E070207C40F088002074607C40F0C000607407F01000002807D0A04698F8030040F00C0088F8030006E0A14699F803003B
S35100006E6800F0F30089F8030007F00800002803D0F0B2082100F0A0FE002003B0BDE8F84704B0704770B504460E4604256068C0B2042100F091FE0021306AC17005F00800002804D06068C0B2082100F0FA
S35100006EB485FE304606F0F0FD0020BDE87040704738B505462C6A207900F020000028FAD0A86B401CA863E079BDE83840704700000FB430B405462C6A207900F080000028FAD003A80078E071E86B401CCE
S35100006F00E86330BC04B07047F8B507463D463C6A267906F00800002802D0E86C401CE86406F00100002802D0686C401C686406F00400002802D0686D401C686506F00200002802D0A86C401CA86406F0A4
S35100006F4C0A0000280DD0E079A07C00F00100002807D0607C40F040006074A07C40F00100A074A07C00F04000002801D1012000E00020BDE8F84070470FB4F8B5054616462C6A0798032803D8032800F096
S35100006F98AB8100E2A0F60250162800F2FC814FEA80008744F0BF00F063B900F080B800F081B800F08DB800F0ACB800F0ECB900F0EAB900F0E8B900F0E6B900F0E4B900F030B800F016B800F09DB900F04A
S35100006FE490B900F0CDB800F0BBB800F0D6B900F0D4B900F0D2B900F09FB800F0A7B800F05DB900F068B90827A07800F0100000280FD0286B00F0010001280AD1A07800F00200002804D0A07A00F0200010
S35100007030002800D07F1C3760B4E13068082804D03068092801D00C20ADE13068082818D1286B00F00100012840F0A481A07A00F0DF00A072A07800F00200002804D0A07840F01000A07095E1A07800F0C5
S3510000707CEF00A07090E1286B00F00100012812D1A07840F01000A070A07800F00200002804D0A07A40F02000A0727DE1A07A00F0DF00A07278E1162077E1E868306073E1AF68204639463268FFF7F0FDEB
S351000070C80746002F01D0384669E13068E86065E13146361D686B08603146361DA86B08603146361DE86B08603146361D286C08603146361D686C08603146361DA86C08603146361DE86C08603146361D0A
S35100007114286D086044E1002068630020A8630020E86300202864002068640020A8640020E8640020286533E1207900F08000002801D0012000E00020306029E1207900F02000002801D0012000E0002015
S3510000716030601FE10127A07800F00200002807D0A07800F00100002801D0022700E0032737600FE13068401E002806D0401E00281CD0401E002841D06CE0A07800F00200002800F0FF80A07800F0FC0072
